{
  "_format": "hh-sol-artifact-1",
  "contractName": "BaseCards",
  "sourceName": "contracts/RoyalFlush/BaseCards.sol",
  "abi": [
    {
      "inputs": [],
      "stateMutability": "nonpayable",
      "type": "constructor"
    },
    {
      "inputs": [
        {
          "internalType": "address",
          "name": "sender",
          "type": "address"
        },
        {
          "internalType": "uint256",
          "name": "balance",
          "type": "uint256"
        },
        {
          "internalType": "uint256",
          "name": "needed",
          "type": "uint256"
        },
        {
          "internalType": "uint256",
          "name": "tokenId",
          "type": "uint256"
        }
      ],
      "name": "ERC1155InsufficientBalance",
      "type": "error"
    },
    {
      "inputs": [
        {
          "internalType": "address",
          "name": "approver",
          "type": "address"
        }
      ],
      "name": "ERC1155InvalidApprover",
      "type": "error"
    },
    {
      "inputs": [
        {
          "internalType": "uint256",
          "name": "idsLength",
          "type": "uint256"
        },
        {
          "internalType": "uint256",
          "name": "valuesLength",
          "type": "uint256"
        }
      ],
      "name": "ERC1155InvalidArrayLength",
      "type": "error"
    },
    {
      "inputs": [
        {
          "internalType": "address",
          "name": "operator",
          "type": "address"
        }
      ],
      "name": "ERC1155InvalidOperator",
      "type": "error"
    },
    {
      "inputs": [
        {
          "internalType": "address",
          "name": "receiver",
          "type": "address"
        }
      ],
      "name": "ERC1155InvalidReceiver",
      "type": "error"
    },
    {
      "inputs": [
        {
          "internalType": "address",
          "name": "sender",
          "type": "address"
        }
      ],
      "name": "ERC1155InvalidSender",
      "type": "error"
    },
    {
      "inputs": [
        {
          "internalType": "address",
          "name": "operator",
          "type": "address"
        },
        {
          "internalType": "address",
          "name": "owner",
          "type": "address"
        }
      ],
      "name": "ERC1155MissingApprovalForAll",
      "type": "error"
    },
    {
      "inputs": [],
      "name": "EnforcedPause",
      "type": "error"
    },
    {
      "inputs": [],
      "name": "ExpectedPause",
      "type": "error"
    },
    {
      "inputs": [
        {
          "internalType": "address",
          "name": "owner",
          "type": "address"
        }
      ],
      "name": "OwnableInvalidOwner",
      "type": "error"
    },
    {
      "inputs": [
        {
          "internalType": "address",
          "name": "account",
          "type": "address"
        }
      ],
      "name": "OwnableUnauthorizedAccount",
      "type": "error"
    },
    {
      "anonymous": false,
      "inputs": [
        {
          "indexed": true,
          "internalType": "address",
          "name": "account",
          "type": "address"
        },
        {
          "indexed": true,
          "internalType": "address",
          "name": "operator",
          "type": "address"
        },
        {
          "indexed": false,
          "internalType": "bool",
          "name": "approved",
          "type": "bool"
        }
      ],
      "name": "ApprovalForAll",
      "type": "event"
    },
    {
      "anonymous": false,
      "inputs": [
        {
          "indexed": true,
          "internalType": "address",
          "name": "previousOwner",
          "type": "address"
        },
        {
          "indexed": true,
          "internalType": "address",
          "name": "newOwner",
          "type": "address"
        }
      ],
      "name": "OwnershipTransferred",
      "type": "event"
    },
    {
      "anonymous": false,
      "inputs": [
        {
          "indexed": false,
          "internalType": "address",
          "name": "account",
          "type": "address"
        }
      ],
      "name": "Paused",
      "type": "event"
    },
    {
      "anonymous": false,
      "inputs": [
        {
          "indexed": true,
          "internalType": "address",
          "name": "operator",
          "type": "address"
        },
        {
          "indexed": true,
          "internalType": "address",
          "name": "from",
          "type": "address"
        },
        {
          "indexed": true,
          "internalType": "address",
          "name": "to",
          "type": "address"
        },
        {
          "indexed": false,
          "internalType": "uint256[]",
          "name": "ids",
          "type": "uint256[]"
        },
        {
          "indexed": false,
          "internalType": "uint256[]",
          "name": "values",
          "type": "uint256[]"
        }
      ],
      "name": "TransferBatch",
      "type": "event"
    },
    {
      "anonymous": false,
      "inputs": [
        {
          "indexed": true,
          "internalType": "address",
          "name": "operator",
          "type": "address"
        },
        {
          "indexed": true,
          "internalType": "address",
          "name": "from",
          "type": "address"
        },
        {
          "indexed": true,
          "internalType": "address",
          "name": "to",
          "type": "address"
        },
        {
          "indexed": false,
          "internalType": "uint256",
          "name": "id",
          "type": "uint256"
        },
        {
          "indexed": false,
          "internalType": "uint256",
          "name": "value",
          "type": "uint256"
        }
      ],
      "name": "TransferSingle",
      "type": "event"
    },
    {
      "anonymous": false,
      "inputs": [
        {
          "indexed": false,
          "internalType": "string",
          "name": "value",
          "type": "string"
        },
        {
          "indexed": true,
          "internalType": "uint256",
          "name": "id",
          "type": "uint256"
        }
      ],
      "name": "URI",
      "type": "event"
    },
    {
      "anonymous": false,
      "inputs": [
        {
          "indexed": false,
          "internalType": "address",
          "name": "account",
          "type": "address"
        }
      ],
      "name": "Unpaused",
      "type": "event"
    },
    {
      "inputs": [],
      "name": "ACE_OF_CLUBS",
      "outputs": [
        {
          "internalType": "uint256",
          "name": "",
          "type": "uint256"
        }
      ],
      "stateMutability": "view",
      "type": "function"
    },
    {
      "inputs": [],
      "name": "ACE_OF_DIAMONDS",
      "outputs": [
        {
          "internalType": "uint256",
          "name": "",
          "type": "uint256"
        }
      ],
      "stateMutability": "view",
      "type": "function"
    },
    {
      "inputs": [],
      "name": "ACE_OF_HEARTS",
      "outputs": [
        {
          "internalType": "uint256",
          "name": "",
          "type": "uint256"
        }
      ],
      "stateMutability": "view",
      "type": "function"
    },
    {
      "inputs": [],
      "name": "ACE_OF_SPADES",
      "outputs": [
        {
          "internalType": "uint256",
          "name": "",
          "type": "uint256"
        }
      ],
      "stateMutability": "view",
      "type": "function"
    },
    {
      "inputs": [],
      "name": "JACK_OF_CLUBS",
      "outputs": [
        {
          "internalType": "uint256",
          "name": "",
          "type": "uint256"
        }
      ],
      "stateMutability": "view",
      "type": "function"
    },
    {
      "inputs": [],
      "name": "JACK_OF_DIAMONDS",
      "outputs": [
        {
          "internalType": "uint256",
          "name": "",
          "type": "uint256"
        }
      ],
      "stateMutability": "view",
      "type": "function"
    },
    {
      "inputs": [],
      "name": "JACK_OF_HEARTS",
      "outputs": [
        {
          "internalType": "uint256",
          "name": "",
          "type": "uint256"
        }
      ],
      "stateMutability": "view",
      "type": "function"
    },
    {
      "inputs": [],
      "name": "JACK_OF_SPADES",
      "outputs": [
        {
          "internalType": "uint256",
          "name": "",
          "type": "uint256"
        }
      ],
      "stateMutability": "view",
      "type": "function"
    },
    {
      "inputs": [],
      "name": "KING_OF_CLUBS",
      "outputs": [
        {
          "internalType": "uint256",
          "name": "",
          "type": "uint256"
        }
      ],
      "stateMutability": "view",
      "type": "function"
    },
    {
      "inputs": [],
      "name": "KING_OF_DIAMONDS",
      "outputs": [
        {
          "internalType": "uint256",
          "name": "",
          "type": "uint256"
        }
      ],
      "stateMutability": "view",
      "type": "function"
    },
    {
      "inputs": [],
      "name": "KING_OF_HEARTS",
      "outputs": [
        {
          "internalType": "uint256",
          "name": "",
          "type": "uint256"
        }
      ],
      "stateMutability": "view",
      "type": "function"
    },
    {
      "inputs": [],
      "name": "KING_OF_SPADES",
      "outputs": [
        {
          "internalType": "uint256",
          "name": "",
          "type": "uint256"
        }
      ],
      "stateMutability": "view",
      "type": "function"
    },
    {
      "inputs": [],
      "name": "QUEEN_OF_CLUBS",
      "outputs": [
        {
          "internalType": "uint256",
          "name": "",
          "type": "uint256"
        }
      ],
      "stateMutability": "view",
      "type": "function"
    },
    {
      "inputs": [],
      "name": "QUEEN_OF_DIAMONDS",
      "outputs": [
        {
          "internalType": "uint256",
          "name": "",
          "type": "uint256"
        }
      ],
      "stateMutability": "view",
      "type": "function"
    },
    {
      "inputs": [],
      "name": "QUEEN_OF_HEARTS",
      "outputs": [
        {
          "internalType": "uint256",
          "name": "",
          "type": "uint256"
        }
      ],
      "stateMutability": "view",
      "type": "function"
    },
    {
      "inputs": [],
      "name": "QUEEN_OF_SPADES",
      "outputs": [
        {
          "internalType": "uint256",
          "name": "",
          "type": "uint256"
        }
      ],
      "stateMutability": "view",
      "type": "function"
    },
    {
      "inputs": [],
      "name": "TEN_OF_CLUBS",
      "outputs": [
        {
          "internalType": "uint256",
          "name": "",
          "type": "uint256"
        }
      ],
      "stateMutability": "view",
      "type": "function"
    },
    {
      "inputs": [],
      "name": "TEN_OF_DIAMONDS",
      "outputs": [
        {
          "internalType": "uint256",
          "name": "",
          "type": "uint256"
        }
      ],
      "stateMutability": "view",
      "type": "function"
    },
    {
      "inputs": [],
      "name": "TEN_OF_HEARTS",
      "outputs": [
        {
          "internalType": "uint256",
          "name": "",
          "type": "uint256"
        }
      ],
      "stateMutability": "view",
      "type": "function"
    },
    {
      "inputs": [],
      "name": "TEN_OF_SPADES",
      "outputs": [
        {
          "internalType": "uint256",
          "name": "",
          "type": "uint256"
        }
      ],
      "stateMutability": "view",
      "type": "function"
    },
    {
      "inputs": [],
      "name": "TOTAL_CARDS",
      "outputs": [
        {
          "internalType": "uint256",
          "name": "",
          "type": "uint256"
        }
      ],
      "stateMutability": "view",
      "type": "function"
    },
    {
      "inputs": [],
      "name": "WILDCARD",
      "outputs": [
        {
          "internalType": "uint256",
          "name": "",
          "type": "uint256"
        }
      ],
      "stateMutability": "view",
      "type": "function"
    },
    {
      "inputs": [
        {
          "internalType": "address",
          "name": "_address",
          "type": "address"
        }
      ],
      "name": "allBalances",
      "outputs": [
        {
          "internalType": "uint256[]",
          "name": "",
          "type": "uint256[]"
        }
      ],
      "stateMutability": "view",
      "type": "function"
    },
    {
      "inputs": [],
      "name": "allIds",
      "outputs": [
        {
          "internalType": "uint256[]",
          "name": "",
          "type": "uint256[]"
        }
      ],
      "stateMutability": "pure",
      "type": "function"
    },
    {
      "inputs": [
        {
          "internalType": "address",
          "name": "account",
          "type": "address"
        },
        {
          "internalType": "uint256",
          "name": "id",
          "type": "uint256"
        }
      ],
      "name": "balanceOf",
      "outputs": [
        {
          "internalType": "uint256",
          "name": "",
          "type": "uint256"
        }
      ],
      "stateMutability": "view",
      "type": "function"
    },
    {
      "inputs": [
        {
          "internalType": "address[]",
          "name": "accounts",
          "type": "address[]"
        },
        {
          "internalType": "uint256[]",
          "name": "ids",
          "type": "uint256[]"
        }
      ],
      "name": "balanceOfBatch",
      "outputs": [
        {
          "internalType": "uint256[]",
          "name": "",
          "type": "uint256[]"
        }
      ],
      "stateMutability": "view",
      "type": "function"
    },
    {
      "inputs": [
        {
          "internalType": "address",
          "name": "account",
          "type": "address"
        },
        {
          "internalType": "address",
          "name": "operator",
          "type": "address"
        }
      ],
      "name": "isApprovedForAll",
      "outputs": [
        {
          "internalType": "bool",
          "name": "",
          "type": "bool"
        }
      ],
      "stateMutability": "view",
      "type": "function"
    },
    {
      "inputs": [
        {
          "internalType": "uint256",
          "name": "id",
          "type": "uint256"
        },
        {
          "internalType": "enum Suit",
          "name": "targetSuit",
          "type": "uint8"
        },
        {
          "internalType": "enum Value",
          "name": "targetValue",
          "type": "uint8"
        }
      ],
      "name": "matchAgainst",
      "outputs": [
        {
          "internalType": "bool",
          "name": "mSuit",
          "type": "bool"
        },
        {
          "internalType": "bool",
          "name": "mValue",
          "type": "bool"
        }
      ],
      "stateMutability": "pure",
      "type": "function"
    },
    {
      "inputs": [
        {
          "internalType": "uint256[]",
          "name": "ids",
          "type": "uint256[]"
        },
        {
          "internalType": "enum Suit",
          "name": "targetSuit",
          "type": "uint8"
        },
        {
          "internalType": "enum Value",
          "name": "targetValue",
          "type": "uint8"
        }
      ],
      "name": "matchAllAgainst",
      "outputs": [
        {
          "internalType": "bool",
          "name": "mSuit",
          "type": "bool"
        },
        {
          "internalType": "bool",
          "name": "mValue",
          "type": "bool"
        }
      ],
      "stateMutability": "pure",
      "type": "function"
    },
    {
      "inputs": [
        {
          "internalType": "address",
          "name": "to",
          "type": "address"
        },
        {
          "internalType": "uint256[]",
          "name": "ids",
          "type": "uint256[]"
        },
        {
          "internalType": "uint256[]",
          "name": "amounts",
          "type": "uint256[]"
        },
        {
          "internalType": "bytes",
          "name": "data",
          "type": "bytes"
        }
      ],
      "name": "mintBatch",
      "outputs": [],
      "stateMutability": "nonpayable",
      "type": "function"
    },
    {
      "inputs": [],
      "name": "name",
      "outputs": [
        {
          "internalType": "string",
          "name": "",
          "type": "string"
        }
      ],
      "stateMutability": "view",
      "type": "function"
    },
    {
      "inputs": [],
      "name": "owner",
      "outputs": [
        {
          "internalType": "address",
          "name": "",
          "type": "address"
        }
      ],
      "stateMutability": "view",
      "type": "function"
    },
    {
      "inputs": [],
      "name": "paused",
      "outputs": [
        {
          "internalType": "bool",
          "name": "",
          "type": "bool"
        }
      ],
      "stateMutability": "view",
      "type": "function"
    },
    {
      "inputs": [],
      "name": "renounceOwnership",
      "outputs": [],
      "stateMutability": "nonpayable",
      "type": "function"
    },
    {
      "inputs": [
        {
          "internalType": "address",
          "name": "from",
          "type": "address"
        },
        {
          "internalType": "address",
          "name": "to",
          "type": "address"
        },
        {
          "internalType": "uint256[]",
          "name": "ids",
          "type": "uint256[]"
        },
        {
          "internalType": "uint256[]",
          "name": "values",
          "type": "uint256[]"
        },
        {
          "internalType": "bytes",
          "name": "data",
          "type": "bytes"
        }
      ],
      "name": "safeBatchTransferFrom",
      "outputs": [],
      "stateMutability": "nonpayable",
      "type": "function"
    },
    {
      "inputs": [
        {
          "internalType": "address",
          "name": "from",
          "type": "address"
        },
        {
          "internalType": "address",
          "name": "to",
          "type": "address"
        },
        {
          "internalType": "uint256",
          "name": "id",
          "type": "uint256"
        },
        {
          "internalType": "uint256",
          "name": "value",
          "type": "uint256"
        },
        {
          "internalType": "bytes",
          "name": "data",
          "type": "bytes"
        }
      ],
      "name": "safeTransferFrom",
      "outputs": [],
      "stateMutability": "nonpayable",
      "type": "function"
    },
    {
      "inputs": [
        {
          "internalType": "address",
          "name": "operator",
          "type": "address"
        },
        {
          "internalType": "bool",
          "name": "approved",
          "type": "bool"
        }
      ],
      "name": "setApprovalForAll",
      "outputs": [],
      "stateMutability": "nonpayable",
      "type": "function"
    },
    {
      "inputs": [
        {
          "internalType": "uint256",
          "name": "id",
          "type": "uint256"
        }
      ],
      "name": "shapeForId",
      "outputs": [
        {
          "internalType": "enum Suit",
          "name": "cSuit",
          "type": "uint8"
        },
        {
          "internalType": "enum Value",
          "name": "cValue",
          "type": "uint8"
        }
      ],
      "stateMutability": "pure",
      "type": "function"
    },
    {
      "inputs": [
        {
          "internalType": "bytes4",
          "name": "interfaceId",
          "type": "bytes4"
        }
      ],
      "name": "supportsInterface",
      "outputs": [
        {
          "internalType": "bool",
          "name": "",
          "type": "bool"
        }
      ],
      "stateMutability": "view",
      "type": "function"
    },
    {
      "inputs": [],
      "name": "symbol",
      "outputs": [
        {
          "internalType": "string",
          "name": "",
          "type": "string"
        }
      ],
      "stateMutability": "view",
      "type": "function"
    },
    {
      "inputs": [],
      "name": "togglePause",
      "outputs": [],
      "stateMutability": "nonpayable",
      "type": "function"
    },
    {
      "inputs": [
        {
          "internalType": "address",
          "name": "newOwner",
          "type": "address"
        }
      ],
      "name": "transferOwnership",
      "outputs": [],
      "stateMutability": "nonpayable",
      "type": "function"
    },
    {
      "inputs": [
        {
          "internalType": "uint256",
          "name": "",
          "type": "uint256"
        }
      ],
      "name": "uri",
      "outputs": [
        {
          "internalType": "string",
          "name": "",
          "type": "string"
        }
      ],
      "stateMutability": "view",
      "type": "function"
    }
  ],
  "bytecode": "0x60806040523480156200001157600080fd5b5060405180606001604052806029815260200162003826602991396200003c6200018360201b60201c565b60008060006101000a81548160ff021916908315150217905550600073ffffffffffffffffffffffffffffffffffffffff168173ffffffffffffffffffffffffffffffffffffffff1603620000cb5760006040517f1e4fbdf7000000000000000000000000000000000000000000000000000000008152600401620000c29190620002aa565b60405180910390fd5b620000dc816200018b60201b60201c565b50620000ee816200025060201b60201c565b506040518060400160405280601c81526020017f4e4654434720526f79616c20466c7573682042617365204361726473000000008152506004908162000135919062000541565b506040518060400160405280600481526020017f5246504300000000000000000000000000000000000000000000000000000000815250600590816200017c919062000541565b5062000628565b600033905090565b60008060019054906101000a900473ffffffffffffffffffffffffffffffffffffffff16905081600060016101000a81548173ffffffffffffffffffffffffffffffffffffffff021916908373ffffffffffffffffffffffffffffffffffffffff1602179055508173ffffffffffffffffffffffffffffffffffffffff168173ffffffffffffffffffffffffffffffffffffffff167f8be0079c531659141344cd1fd0a4f28419497f9722a3daafe3b4186f6b6457e060405160405180910390a35050565b806003908162000261919062000541565b5050565b600073ffffffffffffffffffffffffffffffffffffffff82169050919050565b6000620002928262000265565b9050919050565b620002a48162000285565b82525050565b6000602082019050620002c1600083018462000299565b92915050565b600081519050919050565b7f4e487b7100000000000000000000000000000000000000000000000000000000600052604160045260246000fd5b7f4e487b7100000000000000000000000000000000000000000000000000000000600052602260045260246000fd5b600060028204905060018216806200034957607f821691505b6020821081036200035f576200035e62000301565b5b50919050565b60008190508160005260206000209050919050565b60006020601f8301049050919050565b600082821b905092915050565b600060088302620003c97fffffffffffffffffffffffffffffffffffffffffffffffffffffffffffffffff826200038a565b620003d586836200038a565b95508019841693508086168417925050509392505050565b6000819050919050565b6000819050919050565b6000620004226200041c6200041684620003ed565b620003f7565b620003ed565b9050919050565b6000819050919050565b6200043e8362000401565b620004566200044d8262000429565b84845462000397565b825550505050565b600090565b6200046d6200045e565b6200047a81848462000433565b505050565b5b81811015620004a2576200049660008262000463565b60018101905062000480565b5050565b601f821115620004f157620004bb8162000365565b620004c6846200037a565b81016020851015620004d6578190505b620004ee620004e5856200037a565b8301826200047f565b50505b505050565b600082821c905092915050565b60006200051660001984600802620004f6565b1980831691505092915050565b600062000531838362000503565b9150826002028217905092915050565b6200054c82620002c7565b67ffffffffffffffff811115620005685762000567620002d2565b5b62000574825462000330565b62000581828285620004a6565b600060209050601f831160018114620005b95760008415620005a4578287015190505b620005b0858262000523565b86555062000620565b601f198416620005c98662000365565b60005b82811015620005f357848901518255600182019150602085019450602081019050620005cc565b868310156200061357848901516200060f601f89168262000503565b8355505b6001600288020188555050505b505050505050565b6131ee80620006386000396000f3fe608060405234801561001057600080fd5b50600436106102685760003560e01c80638c41325211610151578063c3edfc32116100c3578063e53f714f11610087578063e53f714f14610716578063e985e9c514610746578063ec519fb214610776578063f242432a14610794578063f2fde38b146107b0578063fd6bc723146107cc57610268565b8063c3edfc3214610694578063c4ae3168146106b2578063c4e64a4e146106bc578063d3e46dba146106da578063e03ab531146106f857610268565b8063a1f12d2911610115578063a1f12d29146105e2578063a22cb46514610600578063acd8f36a1461061c578063af5c6f1d1461063a578063b23a277714610658578063b5d654181461067657610268565b80638c4132521461054c5780638da5cb5b1461056a57806392bdf7961461058857806395d89b41146105a6578063a0669a55146105c457610268565b80633119273a116101ea5780635c975abb116101ae5780635c975abb146104ac578063614b4baa146104ca5780636889b66d146104e8578063715018a6146105065780637d41ebb014610510578063836c90991461052e57610268565b80633119273a146103f1578063380f9da21461040f5780633bc80f72146104405780634e1273f41461045e5780635a46cffa1461048e57610268565b80630e89341c116102315780630e89341c14610327578063160cebe8146103575780631f7fdffa14610388578063227558d0146103a45780632eb2c2d6146103d557610268565b8062fdd58e1461026d57806301ffc9a71461029d578063040025f6146102cd57806306fdde03146102eb5780630e4ec0f814610309575b600080fd5b610287600480360381019061028291906122b1565b6107ea565b6040516102949190612300565b60405180910390f35b6102b760048036038101906102b29190612373565b610845565b6040516102c491906123bb565b60405180910390f35b6102d5610927565b6040516102e29190612300565b60405180910390f35b6102f361092c565b6040516103009190612466565b60405180910390f35b6103116109ba565b60405161031e9190612300565b60405180910390f35b610341600480360381019061033c9190612488565b6109bf565b60405161034e9190612466565b60405180910390f35b610371600480360381019061036c9190612647565b610a53565b60405161037f9291906126b6565b60405180910390f35b6103a2600480360381019061039d9190612794565b610ade565b005b6103be60048036038101906103b9919061284f565b610af8565b6040516103cc9291906126b6565b60405180910390f35b6103ef60048036038101906103ea91906128a2565b610bcb565b005b6103f9610c73565b6040516104069190612300565b60405180910390f35b61042960048036038101906104249190612488565b610c78565b604051610437929190612a30565b60405180910390f35b610448610cd8565b6040516104559190612300565b60405180910390f35b61047860048036038101906104739190612b1c565b610cdd565b6040516104859190612c52565b60405180910390f35b610496610de6565b6040516104a39190612300565b60405180910390f35b6104b4610deb565b6040516104c191906123bb565b60405180910390f35b6104d2610e01565b6040516104df9190612300565b60405180910390f35b6104f0610e06565b6040516104fd9190612300565b60405180910390f35b61050e610e0b565b005b610518610e1f565b6040516105259190612300565b60405180910390f35b610536610e24565b6040516105439190612300565b60405180910390f35b610554610e29565b6040516105619190612c52565b60405180910390f35b610572610eba565b60405161057f9190612c83565b60405180910390f35b610590610ee3565b60405161059d9190612300565b60405180910390f35b6105ae610ee8565b6040516105bb9190612466565b60405180910390f35b6105cc610f76565b6040516105d99190612300565b60405180910390f35b6105ea610f7b565b6040516105f79190612300565b60405180910390f35b61061a60048036038101906106159190612cca565b610f80565b005b610624610f96565b6040516106319190612300565b60405180910390f35b610642610f9b565b60405161064f9190612300565b60405180910390f35b610660610fa0565b60405161066d9190612300565b60405180910390f35b61067e610fa5565b60405161068b9190612300565b60405180910390f35b61069c610faa565b6040516106a99190612300565b60405180910390f35b6106ba610faf565b005b6106c4610fdc565b6040516106d19190612300565b60405180910390f35b6106e2610fe1565b6040516106ef9190612300565b60405180910390f35b610700610fe6565b60405161070d9190612300565b60405180910390f35b610730600480360381019061072b9190612d0a565b610feb565b60405161073d9190612c52565b60405180910390f35b610760600480360381019061075b9190612d37565b611124565b60405161076d91906123bb565b60405180910390f35b61077e6111b8565b60405161078b9190612300565b60405180910390f35b6107ae60048036038101906107a99190612d77565b6111bd565b005b6107ca60048036038101906107c59190612d0a565b611265565b005b6107d46112eb565b6040516107e19190612300565b60405180910390f35b60006001600083815260200190815260200160002060008473ffffffffffffffffffffffffffffffffffffffff1673ffffffffffffffffffffffffffffffffffffffff16815260200190815260200160002054905092915050565b60007fd9b67a26000000000000000000000000000000000000000000000000000000007bffffffffffffffffffffffffffffffffffffffffffffffffffffffff1916827bffffffffffffffffffffffffffffffffffffffffffffffffffffffff1916148061091057507f0e89341c000000000000000000000000000000000000000000000000000000007bffffffffffffffffffffffffffffffffffffffffffffffffffffffff1916827bffffffffffffffffffffffffffffffffffffffffffffffffffffffff1916145b80610920575061091f826112f0565b5b9050919050565b601181565b6004805461093990612e3d565b80601f016020809104026020016040519081016040528092919081815260200182805461096590612e3d565b80156109b25780601f10610987576101008083540402835291602001916109b2565b820191906000526020600020905b81548152906001019060200180831161099557829003601f168201915b505050505081565b600181565b6060600380546109ce90612e3d565b80601f01602080910402602001604051908101604052809291908181526020018280546109fa90612e3d565b8015610a475780601f10610a1c57610100808354040283529160200191610a47565b820191906000526020600020905b815481529060010190602001808311610a2a57829003601f168201915b50505050509050919050565b600080600191506001905060005b8551811015610ad557600080610a92888481518110610a8357610a82612e6e565b5b60200260200101518888610af8565b91509150848015610aa05750815b9450838015610aac5750805b935084158015610aba575083155b15610ac6575050610ad5565b50508080600101915050610a61565b50935093915050565b610ae661135a565b610af2848484846113e1565b50505050565b6000806001915060019050600080610b0f87610c78565b91509150600480811115610b2657610b25612971565b5b826004811115610b3957610b38612971565b5b1480610b685750856004811115610b5357610b52612971565b5b826004811115610b6657610b65612971565b5b145b9350600580811115610b7d57610b7c612971565b5b816005811115610b9057610b8f612971565b5b1480610bbf5750846005811115610baa57610ba9612971565b5b816005811115610bbd57610bbc612971565b5b145b92505050935093915050565b6000610bd5611467565b90508073ffffffffffffffffffffffffffffffffffffffff168673ffffffffffffffffffffffffffffffffffffffff1614158015610c1a5750610c188682611124565b155b15610c5e5780866040517fe237d922000000000000000000000000000000000000000000000000000000008152600401610c55929190612e9d565b60405180910390fd5b610c6b868686868661146f565b505050505050565b600981565b60008060148303610c90576004915060059050610cd3565b600583610c9d9190612f24565b6004811115610caf57610cae612971565b5b9150600583610cbe9190612f55565b6005811115610cd057610ccf612971565b5b90505b915091565b600381565b60608151835114610d2957815183516040517f5b059991000000000000000000000000000000000000000000000000000000008152600401610d20929190612f86565b60405180910390fd5b6000835167ffffffffffffffff811115610d4657610d456124ba565b5b604051908082528060200260200182016040528015610d745781602001602082028036833780820191505090505b50905060005b8451811015610ddb57610db1610d99828761156790919063ffffffff16565b610dac838761157b90919063ffffffff16565b6107ea565b828281518110610dc457610dc3612e6e565b5b602002602001018181525050806001019050610d7a565b508091505092915050565b600c81565b60008060009054906101000a900460ff16905090565b601281565b600481565b610e1361135a565b610e1d600061158f565b565b601581565b600281565b60606000601567ffffffffffffffff811115610e4857610e476124ba565b5b604051908082528060200260200182016040528015610e765781602001602082028036833780820191505090505b50905060005b6015811015610eb25780828281518110610e9957610e98612e6e565b5b6020026020010181815250508080600101915050610e7c565b508091505090565b60008060019054906101000a900473ffffffffffffffffffffffffffffffffffffffff16905090565b600081565b60058054610ef590612e3d565b80601f0160208091040260200160405190810160405280929190818152602001828054610f2190612e3d565b8015610f6e5780601f10610f4357610100808354040283529160200191610f6e565b820191906000526020600020905b815481529060010190602001808311610f5157829003601f168201915b505050505081565b601081565b600e81565b610f92610f8b611467565b8383611654565b5050565b600f81565b600781565b600a81565b600881565b600b81565b610fb761135a565b610fbf610deb565b15610fd157610fcc6117c4565b610fda565b610fd9611826565b5b565b600581565b601381565b600681565b60606000601567ffffffffffffffff81111561100a576110096124ba565b5b6040519080825280602002602001820160405280156110385781602001602082028036833780820191505090505b5090506000601567ffffffffffffffff811115611058576110576124ba565b5b6040519080825280602002602001820160405280156110865781602001602082028036833780820191505090505b50905060005b601581101561111057808382815181106110a9576110a8612e6e565b5b602002602001018181525050848282815181106110c9576110c8612e6e565b5b602002602001019073ffffffffffffffffffffffffffffffffffffffff16908173ffffffffffffffffffffffffffffffffffffffff1681525050808060010191505061108c565b5061111b8183610cdd565b92505050919050565b6000600260008473ffffffffffffffffffffffffffffffffffffffff1673ffffffffffffffffffffffffffffffffffffffff16815260200190815260200160002060008373ffffffffffffffffffffffffffffffffffffffff1673ffffffffffffffffffffffffffffffffffffffff16815260200190815260200160002060009054906101000a900460ff16905092915050565b600d81565b60006111c7611467565b90508073ffffffffffffffffffffffffffffffffffffffff168673ffffffffffffffffffffffffffffffffffffffff161415801561120c575061120a8682611124565b155b156112505780866040517fe237d922000000000000000000000000000000000000000000000000000000008152600401611247929190612e9d565b60405180910390fd5b61125d8686868686611888565b505050505050565b61126d61135a565b600073ffffffffffffffffffffffffffffffffffffffff168173ffffffffffffffffffffffffffffffffffffffff16036112df5760006040517f1e4fbdf70000000000000000000000000000000000000000000000000000000081526004016112d69190612c83565b60405180910390fd5b6112e88161158f565b50565b601481565b60007f01ffc9a7000000000000000000000000000000000000000000000000000000007bffffffffffffffffffffffffffffffffffffffffffffffffffffffff1916827bffffffffffffffffffffffffffffffffffffffffffffffffffffffff1916149050919050565b611362611467565b73ffffffffffffffffffffffffffffffffffffffff16611380610eba565b73ffffffffffffffffffffffffffffffffffffffff16146113df576113a3611467565b6040517f118cdaa70000000000000000000000000000000000000000000000000000000081526004016113d69190612c83565b60405180910390fd5b565b600073ffffffffffffffffffffffffffffffffffffffff168473ffffffffffffffffffffffffffffffffffffffff16036114535760006040517f57f447ce00000000000000000000000000000000000000000000000000000000815260040161144a9190612c83565b60405180910390fd5b611461600085858585611993565b50505050565b600033905090565b600073ffffffffffffffffffffffffffffffffffffffff168473ffffffffffffffffffffffffffffffffffffffff16036114e15760006040517f57f447ce0000000000000000000000000000000000000000000000000000000081526004016114d89190612c83565b60405180910390fd5b600073ffffffffffffffffffffffffffffffffffffffff168573ffffffffffffffffffffffffffffffffffffffff16036115535760006040517f01a8351400000000000000000000000000000000000000000000000000000000815260040161154a9190612c83565b60405180910390fd5b6115608585858585611993565b5050505050565b600060208202602084010151905092915050565b600060208202602084010151905092915050565b60008060019054906101000a900473ffffffffffffffffffffffffffffffffffffffff16905081600060016101000a81548173ffffffffffffffffffffffffffffffffffffffff021916908373ffffffffffffffffffffffffffffffffffffffff1602179055508173ffffffffffffffffffffffffffffffffffffffff168173ffffffffffffffffffffffffffffffffffffffff167f8be0079c531659141344cd1fd0a4f28419497f9722a3daafe3b4186f6b6457e060405160405180910390a35050565b600073ffffffffffffffffffffffffffffffffffffffff168273ffffffffffffffffffffffffffffffffffffffff16036116c65760006040517fced3e1000000000000000000000000000000000000000000000000000000000081526004016116bd9190612c83565b60405180910390fd5b80600260008573ffffffffffffffffffffffffffffffffffffffff1673ffffffffffffffffffffffffffffffffffffffff16815260200190815260200160002060008473ffffffffffffffffffffffffffffffffffffffff1673ffffffffffffffffffffffffffffffffffffffff16815260200190815260200160002060006101000a81548160ff0219169083151502179055508173ffffffffffffffffffffffffffffffffffffffff168373ffffffffffffffffffffffffffffffffffffffff167f17307eab39ab6107e8899845ad3d59bd9653f200f220920489ca2b5937696c31836040516117b791906123bb565b60405180910390a3505050565b6117cc611a45565b60008060006101000a81548160ff0219169083151502179055507f5db9ee0a495bf2e6ff9c91a7834c1ba4fdd244a5e8aa4e537bd38aeae4b073aa61180f611467565b60405161181c9190612c83565b60405180910390a1565b61182e611a85565b60016000806101000a81548160ff0219169083151502179055507f62e78cea01bee320cd4e420270b5ea74000d11b0c9f74754ebdbfc544b05a258611871611467565b60405161187e9190612c83565b60405180910390a1565b600073ffffffffffffffffffffffffffffffffffffffff168473ffffffffffffffffffffffffffffffffffffffff16036118fa5760006040517f57f447ce0000000000000000000000000000000000000000000000000000000081526004016118f19190612c83565b60405180910390fd5b600073ffffffffffffffffffffffffffffffffffffffff168573ffffffffffffffffffffffffffffffffffffffff160361196c5760006040517f01a835140000000000000000000000000000000000000000000000000000000081526004016119639190612c83565b60405180910390fd5b6000806119798585611ac6565b9150915061198a8787848487611993565b50505050505050565b61199f85858585611af6565b600073ffffffffffffffffffffffffffffffffffffffff168473ffffffffffffffffffffffffffffffffffffffff1614611a3e5760006119dd611467565b90506001845103611a2d5760006119fe60008661157b90919063ffffffff16565b90506000611a1660008661157b90919063ffffffff16565b9050611a26838989858589611ea1565b5050611a3c565b611a3b818787878787612055565b5b505b5050505050565b611a4d610deb565b611a83576040517f8dfc202b00000000000000000000000000000000000000000000000000000000815260040160405180910390fd5b565b611a8d610deb565b15611ac4576040517fd93c066500000000000000000000000000000000000000000000000000000000815260040160405180910390fd5b565b60608060405191506001825283602083015260408201905060018152826020820152604081016040529250929050565b8051825114611b4057815181516040517f5b059991000000000000000000000000000000000000000000000000000000008152600401611b37929190612f86565b60405180910390fd5b6000611b4a611467565b905060005b8351811015611d5c576000611b6d828661157b90919063ffffffff16565b90506000611b84838661157b90919063ffffffff16565b9050600073ffffffffffffffffffffffffffffffffffffffff168873ffffffffffffffffffffffffffffffffffffffff1614611cb35760006001600084815260200190815260200160002060008a73ffffffffffffffffffffffffffffffffffffffff1673ffffffffffffffffffffffffffffffffffffffff16815260200190815260200160002054905081811015611c5a57888183856040517f03dee4c5000000000000000000000000000000000000000000000000000000008152600401611c519493929190612faf565b60405180910390fd5b8181036001600085815260200190815260200160002060008b73ffffffffffffffffffffffffffffffffffffffff1673ffffffffffffffffffffffffffffffffffffffff16815260200190815260200160002081905550505b600073ffffffffffffffffffffffffffffffffffffffff168773ffffffffffffffffffffffffffffffffffffffff1614611d4f57806001600084815260200190815260200160002060008973ffffffffffffffffffffffffffffffffffffffff1673ffffffffffffffffffffffffffffffffffffffff1681526020019081526020016000206000828254611d479190612ff4565b925050819055505b5050806001019050611b4f565b506001835103611e1b576000611d7c60008561157b90919063ffffffff16565b90506000611d9460008561157b90919063ffffffff16565b90508573ffffffffffffffffffffffffffffffffffffffff168773ffffffffffffffffffffffffffffffffffffffff168473ffffffffffffffffffffffffffffffffffffffff167fc3d58168c5ae7397731d063d5bbf3d657854427343f4c083240f7aacaa2d0f628585604051611e0c929190612f86565b60405180910390a45050611e9a565b8373ffffffffffffffffffffffffffffffffffffffff168573ffffffffffffffffffffffffffffffffffffffff168273ffffffffffffffffffffffffffffffffffffffff167f4a39dc06d4c0dbc64b70af90fd698a233a518aa5d07e595d983b8c0526c8f7fb8686604051611e91929190613028565b60405180910390a45b5050505050565b60008473ffffffffffffffffffffffffffffffffffffffff163b111561204d578373ffffffffffffffffffffffffffffffffffffffff1663f23a6e6187878686866040518663ffffffff1660e01b8152600401611f029594939291906130b4565b6020604051808303816000875af1925050508015611f3e57506040513d601f19601f82011682018060405250810190611f3b9190613123565b60015b611fc2573d8060008114611f6e576040519150601f19603f3d011682016040523d82523d6000602084013e611f73565b606091505b506000815103611fba57846040517f57f447ce000000000000000000000000000000000000000000000000000000008152600401611fb19190612c83565b60405180910390fd5b805181602001fd5b63f23a6e6160e01b7bffffffffffffffffffffffffffffffffffffffffffffffffffffffff1916817bffffffffffffffffffffffffffffffffffffffffffffffffffffffff19161461204b57846040517f57f447ce0000000000000000000000000000000000000000000000000000000081526004016120429190612c83565b60405180910390fd5b505b505050505050565b60008473ffffffffffffffffffffffffffffffffffffffff163b1115612201578373ffffffffffffffffffffffffffffffffffffffff1663bc197c8187878686866040518663ffffffff1660e01b81526004016120b6959493929190613150565b6020604051808303816000875af19250505080156120f257506040513d601f19601f820116820180604052508101906120ef9190613123565b60015b612176573d8060008114612122576040519150601f19603f3d011682016040523d82523d6000602084013e612127565b606091505b50600081510361216e57846040517f57f447ce0000000000000000000000000000000000000000000000000000000081526004016121659190612c83565b60405180910390fd5b805181602001fd5b63bc197c8160e01b7bffffffffffffffffffffffffffffffffffffffffffffffffffffffff1916817bffffffffffffffffffffffffffffffffffffffffffffffffffffffff1916146121ff57846040517f57f447ce0000000000000000000000000000000000000000000000000000000081526004016121f69190612c83565b60405180910390fd5b505b505050505050565b6000604051905090565b600080fd5b600080fd5b600073ffffffffffffffffffffffffffffffffffffffff82169050919050565b60006122488261221d565b9050919050565b6122588161223d565b811461226357600080fd5b50565b6000813590506122758161224f565b92915050565b6000819050919050565b61228e8161227b565b811461229957600080fd5b50565b6000813590506122ab81612285565b92915050565b600080604083850312156122c8576122c7612213565b5b60006122d685828601612266565b92505060206122e78582860161229c565b9150509250929050565b6122fa8161227b565b82525050565b600060208201905061231560008301846122f1565b92915050565b60007fffffffff0000000000000000000000000000000000000000000000000000000082169050919050565b6123508161231b565b811461235b57600080fd5b50565b60008135905061236d81612347565b92915050565b60006020828403121561238957612388612213565b5b60006123978482850161235e565b91505092915050565b60008115159050919050565b6123b5816123a0565b82525050565b60006020820190506123d060008301846123ac565b92915050565b600081519050919050565b600082825260208201905092915050565b60005b838110156124105780820151818401526020810190506123f5565b60008484015250505050565b6000601f19601f8301169050919050565b6000612438826123d6565b61244281856123e1565b93506124528185602086016123f2565b61245b8161241c565b840191505092915050565b60006020820190508181036000830152612480818461242d565b905092915050565b60006020828403121561249e5761249d612213565b5b60006124ac8482850161229c565b91505092915050565b600080fd5b7f4e487b7100000000000000000000000000000000000000000000000000000000600052604160045260246000fd5b6124f28261241c565b810181811067ffffffffffffffff82111715612511576125106124ba565b5b80604052505050565b6000612524612209565b905061253082826124e9565b919050565b600067ffffffffffffffff8211156125505761254f6124ba565b5b602082029050602081019050919050565b600080fd5b600061257961257484612535565b61251a565b9050808382526020820190506020840283018581111561259c5761259b612561565b5b835b818110156125c557806125b1888261229c565b84526020840193505060208101905061259e565b5050509392505050565b600082601f8301126125e4576125e36124b5565b5b81356125f4848260208601612566565b91505092915050565b6005811061260a57600080fd5b50565b60008135905061261c816125fd565b92915050565b6006811061262f57600080fd5b50565b60008135905061264181612622565b92915050565b6000806000606084860312156126605761265f612213565b5b600084013567ffffffffffffffff81111561267e5761267d612218565b5b61268a868287016125cf565b935050602061269b8682870161260d565b92505060406126ac86828701612632565b9150509250925092565b60006040820190506126cb60008301856123ac565b6126d860208301846123ac565b9392505050565b600080fd5b600067ffffffffffffffff8211156126ff576126fe6124ba565b5b6127088261241c565b9050602081019050919050565b82818337600083830152505050565b6000612737612732846126e4565b61251a565b905082815260208101848484011115612753576127526126df565b5b61275e848285612715565b509392505050565b600082601f83011261277b5761277a6124b5565b5b813561278b848260208601612724565b91505092915050565b600080600080608085870312156127ae576127ad612213565b5b60006127bc87828801612266565b945050602085013567ffffffffffffffff8111156127dd576127dc612218565b5b6127e9878288016125cf565b935050604085013567ffffffffffffffff81111561280a57612809612218565b5b612816878288016125cf565b925050606085013567ffffffffffffffff81111561283757612836612218565b5b61284387828801612766565b91505092959194509250565b60008060006060848603121561286857612867612213565b5b60006128768682870161229c565b93505060206128878682870161260d565b925050604061289886828701612632565b9150509250925092565b600080600080600060a086880312156128be576128bd612213565b5b60006128cc88828901612266565b95505060206128dd88828901612266565b945050604086013567ffffffffffffffff8111156128fe576128fd612218565b5b61290a888289016125cf565b935050606086013567ffffffffffffffff81111561292b5761292a612218565b5b612937888289016125cf565b925050608086013567ffffffffffffffff81111561295857612957612218565b5b61296488828901612766565b9150509295509295909350565b7f4e487b7100000000000000000000000000000000000000000000000000000000600052602160045260246000fd5b600581106129b1576129b0612971565b5b50565b60008190506129c2826129a0565b919050565b60006129d2826129b4565b9050919050565b6129e2816129c7565b82525050565b600681106129f9576129f8612971565b5b50565b6000819050612a0a826129e8565b919050565b6000612a1a826129fc565b9050919050565b612a2a81612a0f565b82525050565b6000604082019050612a4560008301856129d9565b612a526020830184612a21565b9392505050565b600067ffffffffffffffff821115612a7457612a736124ba565b5b602082029050602081019050919050565b6000612a98612a9384612a59565b61251a565b90508083825260208201905060208402830185811115612abb57612aba612561565b5b835b81811015612ae45780612ad08882612266565b845260208401935050602081019050612abd565b5050509392505050565b600082601f830112612b0357612b026124b5565b5b8135612b13848260208601612a85565b91505092915050565b60008060408385031215612b3357612b32612213565b5b600083013567ffffffffffffffff811115612b5157612b50612218565b5b612b5d85828601612aee565b925050602083013567ffffffffffffffff811115612b7e57612b7d612218565b5b612b8a858286016125cf565b9150509250929050565b600081519050919050565b600082825260208201905092915050565b6000819050602082019050919050565b612bc98161227b565b82525050565b6000612bdb8383612bc0565b60208301905092915050565b6000602082019050919050565b6000612bff82612b94565b612c098185612b9f565b9350612c1483612bb0565b8060005b83811015612c45578151612c2c8882612bcf565b9750612c3783612be7565b925050600181019050612c18565b5085935050505092915050565b60006020820190508181036000830152612c6c8184612bf4565b905092915050565b612c7d8161223d565b82525050565b6000602082019050612c986000830184612c74565b92915050565b612ca7816123a0565b8114612cb257600080fd5b50565b600081359050612cc481612c9e565b92915050565b60008060408385031215612ce157612ce0612213565b5b6000612cef85828601612266565b9250506020612d0085828601612cb5565b9150509250929050565b600060208284031215612d2057612d1f612213565b5b6000612d2e84828501612266565b91505092915050565b60008060408385031215612d4e57612d4d612213565b5b6000612d5c85828601612266565b9250506020612d6d85828601612266565b9150509250929050565b600080600080600060a08688031215612d9357612d92612213565b5b6000612da188828901612266565b9550506020612db288828901612266565b9450506040612dc38882890161229c565b9350506060612dd48882890161229c565b925050608086013567ffffffffffffffff811115612df557612df4612218565b5b612e0188828901612766565b9150509295509295909350565b7f4e487b7100000000000000000000000000000000000000000000000000000000600052602260045260246000fd5b60006002820490506001821680612e5557607f821691505b602082108103612e6857612e67612e0e565b5b50919050565b7f4e487b7100000000000000000000000000000000000000000000000000000000600052603260045260246000fd5b6000604082019050612eb26000830185612c74565b612ebf6020830184612c74565b9392505050565b7f4e487b7100000000000000000000000000000000000000000000000000000000600052601260045260246000fd5b7f4e487b7100000000000000000000000000000000000000000000000000000000600052601160045260246000fd5b6000612f2f8261227b565b9150612f3a8361227b565b925082612f4a57612f49612ec6565b5b828204905092915050565b6000612f608261227b565b9150612f6b8361227b565b925082612f7b57612f7a612ec6565b5b828206905092915050565b6000604082019050612f9b60008301856122f1565b612fa860208301846122f1565b9392505050565b6000608082019050612fc46000830187612c74565b612fd160208301866122f1565b612fde60408301856122f1565b612feb60608301846122f1565b95945050505050565b6000612fff8261227b565b915061300a8361227b565b925082820190508082111561302257613021612ef5565b5b92915050565b600060408201905081810360008301526130428185612bf4565b905081810360208301526130568184612bf4565b90509392505050565b600081519050919050565b600082825260208201905092915050565b60006130868261305f565b613090818561306a565b93506130a08185602086016123f2565b6130a98161241c565b840191505092915050565b600060a0820190506130c96000830188612c74565b6130d66020830187612c74565b6130e360408301866122f1565b6130f060608301856122f1565b8181036080830152613102818461307b565b90509695505050505050565b60008151905061311d81612347565b92915050565b60006020828403121561313957613138612213565b5b60006131478482850161310e565b91505092915050565b600060a0820190506131656000830188612c74565b6131726020830187612c74565b81810360408301526131848186612bf4565b905081810360608301526131988185612bf4565b905081810360808301526131ac818461307b565b9050969550505050505056fea26469706673582212201dd4ad7562355299ef9fddfdf1dd75077e4a7458153a3e9669a5004dd3bf0cee64736f6c6343000818003368747470733a2f2f7072656d69756d7369676e616c732e696e666f2f6e66742f7b69647d2e6a736f6e",
  "linkReferences": {},
  "deployedLinkReferences": {}
}