{
  "_format": "hh-sol-artifact-1",
  "contractName": "Deck",
  "sourceName": "contracts/RoyalFlush/Deck.sol",
  "abi": [
    {
      "inputs": [
        {
          "internalType": "address",
          "name": "cardERC20_",
          "type": "address"
        },
        {
          "internalType": "address",
          "name": "baseCards_",
          "type": "address"
        },
        {
          "internalType": "address",
          "name": "game_",
          "type": "address"
        }
      ],
      "stateMutability": "nonpayable",
      "type": "constructor"
    },
    {
      "inputs": [],
      "name": "EnforcedPause",
      "type": "error"
    },
    {
      "inputs": [],
      "name": "ExpectedPause",
      "type": "error"
    },
    {
      "inputs": [
        {
          "internalType": "address",
          "name": "owner",
          "type": "address"
        }
      ],
      "name": "OwnableInvalidOwner",
      "type": "error"
    },
    {
      "inputs": [
        {
          "internalType": "address",
          "name": "account",
          "type": "address"
        }
      ],
      "name": "OwnableUnauthorizedAccount",
      "type": "error"
    },
    {
      "inputs": [],
      "name": "ReentrancyGuardReentrantCall",
      "type": "error"
    },
    {
      "anonymous": false,
      "inputs": [
        {
          "indexed": true,
          "internalType": "address",
          "name": "previousOwner",
          "type": "address"
        },
        {
          "indexed": true,
          "internalType": "address",
          "name": "newOwner",
          "type": "address"
        }
      ],
      "name": "OwnershipTransferred",
      "type": "event"
    },
    {
      "anonymous": false,
      "inputs": [
        {
          "indexed": false,
          "internalType": "address",
          "name": "account",
          "type": "address"
        }
      ],
      "name": "Paused",
      "type": "event"
    },
    {
      "anonymous": false,
      "inputs": [
        {
          "indexed": false,
          "internalType": "address",
          "name": "account",
          "type": "address"
        }
      ],
      "name": "Unpaused",
      "type": "event"
    },
    {
      "stateMutability": "payable",
      "type": "fallback"
    },
    {
      "inputs": [],
      "name": "PRESALE_ACTIVE",
      "outputs": [
        {
          "internalType": "bool",
          "name": "",
          "type": "bool"
        }
      ],
      "stateMutability": "view",
      "type": "function"
    },
    {
      "inputs": [],
      "name": "cardsDrawn",
      "outputs": [
        {
          "internalType": "uint256",
          "name": "",
          "type": "uint256"
        }
      ],
      "stateMutability": "view",
      "type": "function"
    },
    {
      "inputs": [
        {
          "internalType": "uint256",
          "name": "quantity",
          "type": "uint256"
        }
      ],
      "name": "draw",
      "outputs": [],
      "stateMutability": "payable",
      "type": "function"
    },
    {
      "inputs": [
        {
          "internalType": "uint256",
          "name": "baseCardId",
          "type": "uint256"
        },
        {
          "internalType": "uint256",
          "name": "baseCardQty",
          "type": "uint256"
        },
        {
          "internalType": "bool",
          "name": "useWildcard",
          "type": "bool"
        }
      ],
      "name": "meld",
      "outputs": [],
      "stateMutability": "nonpayable",
      "type": "function"
    },
    {
      "inputs": [
        {
          "internalType": "address",
          "name": "",
          "type": "address"
        },
        {
          "internalType": "address",
          "name": "",
          "type": "address"
        },
        {
          "internalType": "uint256[]",
          "name": "",
          "type": "uint256[]"
        },
        {
          "internalType": "uint256[]",
          "name": "",
          "type": "uint256[]"
        },
        {
          "internalType": "bytes",
          "name": "",
          "type": "bytes"
        }
      ],
      "name": "onERC1155BatchReceived",
      "outputs": [
        {
          "internalType": "bytes4",
          "name": "",
          "type": "bytes4"
        }
      ],
      "stateMutability": "nonpayable",
      "type": "function"
    },
    {
      "inputs": [
        {
          "internalType": "address",
          "name": "",
          "type": "address"
        },
        {
          "internalType": "address",
          "name": "",
          "type": "address"
        },
        {
          "internalType": "uint256",
          "name": "",
          "type": "uint256"
        },
        {
          "internalType": "uint256",
          "name": "",
          "type": "uint256"
        },
        {
          "internalType": "bytes",
          "name": "",
          "type": "bytes"
        }
      ],
      "name": "onERC1155Received",
      "outputs": [
        {
          "internalType": "bytes4",
          "name": "",
          "type": "bytes4"
        }
      ],
      "stateMutability": "nonpayable",
      "type": "function"
    },
    {
      "inputs": [],
      "name": "owner",
      "outputs": [
        {
          "internalType": "address",
          "name": "",
          "type": "address"
        }
      ],
      "stateMutability": "view",
      "type": "function"
    },
    {
      "inputs": [],
      "name": "paused",
      "outputs": [
        {
          "internalType": "bool",
          "name": "",
          "type": "bool"
        }
      ],
      "stateMutability": "view",
      "type": "function"
    },
    {
      "inputs": [],
      "name": "renounceOwnership",
      "outputs": [],
      "stateMutability": "nonpayable",
      "type": "function"
    },
    {
      "inputs": [
        {
          "internalType": "bool",
          "name": "value",
          "type": "bool"
        }
      ],
      "name": "setPresale",
      "outputs": [],
      "stateMutability": "nonpayable",
      "type": "function"
    },
    {
      "inputs": [
        {
          "internalType": "bytes4",
          "name": "interfaceId",
          "type": "bytes4"
        }
      ],
      "name": "supportsInterface",
      "outputs": [
        {
          "internalType": "bool",
          "name": "",
          "type": "bool"
        }
      ],
      "stateMutability": "view",
      "type": "function"
    },
    {
      "inputs": [],
      "name": "togglePause",
      "outputs": [],
      "stateMutability": "nonpayable",
      "type": "function"
    },
    {
      "inputs": [
        {
          "internalType": "address",
          "name": "newOwner",
          "type": "address"
        }
      ],
      "name": "transferOwnership",
      "outputs": [],
      "stateMutability": "nonpayable",
      "type": "function"
    },
    {
      "inputs": [
        {
          "internalType": "address",
          "name": "addr",
          "type": "address"
        },
        {
          "internalType": "bool",
          "name": "value",
          "type": "bool"
        }
      ],
      "name": "whitelist",
      "outputs": [],
      "stateMutability": "nonpayable",
      "type": "function"
    },
    {
      "inputs": [],
      "name": "withdraw",
      "outputs": [],
      "stateMutability": "nonpayable",
      "type": "function"
    },
    {
      "stateMutability": "payable",
      "type": "receive"
    }
  ],
  "bytecode": "0x60806040526001600660006101000a81548160ff0219169083151502179055503480156200002c57600080fd5b506040516200347e3803806200347e83398181016040528101906200005291906200030c565b62000062620001d660201b60201c565b600073ffffffffffffffffffffffffffffffffffffffff168173ffffffffffffffffffffffffffffffffffffffff1603620000d75760006040517f1e4fbdf7000000000000000000000000000000000000000000000000000000008152600401620000ce919062000379565b60405180910390fd5b620000e881620001de60201b60201c565b5060008060146101000a81548160ff0219169083151502179055506001808190555082600260006101000a81548173ffffffffffffffffffffffffffffffffffffffff021916908373ffffffffffffffffffffffffffffffffffffffff16021790555081600360006101000a81548173ffffffffffffffffffffffffffffffffffffffff021916908373ffffffffffffffffffffffffffffffffffffffff16021790555080600460006101000a81548173ffffffffffffffffffffffffffffffffffffffff021916908373ffffffffffffffffffffffffffffffffffffffff16021790555050505062000396565b600033905090565b60008060009054906101000a900473ffffffffffffffffffffffffffffffffffffffff169050816000806101000a81548173ffffffffffffffffffffffffffffffffffffffff021916908373ffffffffffffffffffffffffffffffffffffffff1602179055508173ffffffffffffffffffffffffffffffffffffffff168173ffffffffffffffffffffffffffffffffffffffff167f8be0079c531659141344cd1fd0a4f28419497f9722a3daafe3b4186f6b6457e060405160405180910390a35050565b600080fd5b600073ffffffffffffffffffffffffffffffffffffffff82169050919050565b6000620002d482620002a7565b9050919050565b620002e681620002c7565b8114620002f257600080fd5b50565b6000815190506200030681620002db565b92915050565b600080600060608486031215620003285762000327620002a2565b5b60006200033886828701620002f5565b93505060206200034b86828701620002f5565b92505060406200035e86828701620002f5565b9150509250925092565b6200037381620002c7565b82525050565b600060208201905062000390600083018462000368565b92915050565b6130d880620003a66000396000f3fe6080604052600436106100ec5760003560e01c80638da5cb5b1161008a578063d727d78d11610059578063d727d78d146102a3578063f23a6e61146102ce578063f2fde38b1461030b578063f59c370814610334576100f3565b80638da5cb5b146101fb578063bc197c8114610226578063c4ae316814610263578063c54e73e31461027a576100f3565b80633fea6aae116100c65780633fea6aae1461016557806353db433a146101905780635c975abb146101b9578063715018a6146101e4576100f3565b806301ffc9a7146100f55780633b304147146101325780633ccfd60b1461014e576100f3565b366100f357005b005b34801561010157600080fd5b5061011c60048036038101906101179190611ee6565b61035d565b6040516101299190611f2e565b60405180910390f35b61014c60048036038101906101479190611f7f565b6103d7565b005b34801561015a57600080fd5b506101636106ba565b005b34801561017157600080fd5b5061017a6108d7565b6040516101879190611f2e565b60405180910390f35b34801561019c57600080fd5b506101b760048036038101906101b29190611fd8565b6108ea565b005b3480156101c557600080fd5b506101ce610b5d565b6040516101db9190611f2e565b60405180910390f35b3480156101f057600080fd5b506101f9610b73565b005b34801561020757600080fd5b50610210610b87565b60405161021d919061206c565b60405180910390f35b34801561023257600080fd5b5061024d600480360381019061024891906122c1565b610bb0565b60405161025a919061239f565b60405180910390f35b34801561026f57600080fd5b50610278610bc5565b005b34801561028657600080fd5b506102a1600480360381019061029c91906123ba565b610bf2565b005b3480156102af57600080fd5b506102b8610c17565b6040516102c591906123f6565b60405180910390f35b3480156102da57600080fd5b506102f560048036038101906102f09190612411565b610c1d565b604051610302919061239f565b60405180910390f35b34801561031757600080fd5b50610332600480360381019061032d91906124a8565b610c32565b005b34801561034057600080fd5b5061035b600480360381019061035691906124d5565b610cb8565b005b60007f4e2312e0000000000000000000000000000000000000000000000000000000007bffffffffffffffffffffffffffffffffffffffffffffffffffffffff1916827bffffffffffffffffffffffffffffffffffffffffffffffffffffffff191614806103d057506103cf82610d1b565b5b9050919050565b6103df610d85565b6103e7610dc6565b600581101561042b576040517f08c379a000000000000000000000000000000000000000000000000000000000815260040161042290612598565b60405180910390fd5b606481111561046f576040517f08c379a00000000000000000000000000000000000000000000000000000000081526004016104669061262a565b60405180910390fd5b600660009054906101000a900460ff16156105a35760056000610490610e0c565b73ffffffffffffffffffffffffffffffffffffffff1673ffffffffffffffffffffffffffffffffffffffff16815260200190815260200160002060009054906101000a900460ff16610517576040517f08c379a000000000000000000000000000000000000000000000000000000000815260040161050e90612696565b60405180910390fd5b80666a94d74f43000061052a91906126e5565b34101561056c576040517f08c379a000000000000000000000000000000000000000000000000000000000815260040161056390612773565b60405180910390fd5b6161a88160075461057d9190612793565b1061059e576000600660006101000a81548160ff0219169083151502179055505b6106a6565b6000600460009054906101000a900473ffffffffffffffffffffffffffffffffffffffff1673ffffffffffffffffffffffffffffffffffffffff1663193668bc6105eb610e0c565b3085681b1ae4d6e2ef50000061060191906126e5565b6040518463ffffffff1660e01b815260040161061f939291906127c7565b6020604051808303816000875af115801561063e573d6000803e3d6000fd5b505050506040513d601f19601f820116820180604052508101906106629190612813565b9050806106a4576040517f08c379a000000000000000000000000000000000000000000000000000000000815260040161069b906128b2565b60405180910390fd5b505b6106af81610e14565b6106b761131e565b50565b6106c2610dc6565b6106ca611327565b600047905060006106d9610b87565b73ffffffffffffffffffffffffffffffffffffffff16826040516106fc90612903565b60006040518083038185875af1925050503d8060008114610739576040519150601f19603f3d011682016040523d82523d6000602084013e61073e565b606091505b5050905080610782576040517f08c379a000000000000000000000000000000000000000000000000000000000815260040161077990612964565b60405180910390fd5b6000600260009054906101000a900473ffffffffffffffffffffffffffffffffffffffff1673ffffffffffffffffffffffffffffffffffffffff166370a08231306040518263ffffffff1660e01b81526004016107df919061206c565b602060405180830381865afa1580156107fc573d6000803e3d6000fd5b505050506040513d601f19601f820116820180604052508101906108209190612999565b9050600260009054906101000a900473ffffffffffffffffffffffffffffffffffffffff1673ffffffffffffffffffffffffffffffffffffffff1663a9059cbb610868610b87565b836040518363ffffffff1660e01b81526004016108869291906129c6565b6020604051808303816000875af11580156108a5573d6000803e3d6000fd5b505050506040513d601f19601f820116820180604052508101906108c99190612813565b505050506108d561131e565b565b600660009054906101000a900460ff1681565b6108f2610d85565b6108fa610dc6565b600080610923858461090d576000610910565b60015b60ff168661091e9190612793565b6113ae565b915091506000600460009054906101000a900473ffffffffffffffffffffffffffffffffffffffff1673ffffffffffffffffffffffffffffffffffffffff1663193668bc61096f610e0c565b30866040518463ffffffff1660e01b815260040161098f939291906127c7565b6020604051808303816000875af11580156109ae573d6000803e3d6000fd5b505050506040513d601f19601f820116820180604052508101906109d29190612813565b905080610a14576040517f08c379a0000000000000000000000000000000000000000000000000000000008152600401610a0b90612a3b565b60405180910390fd5b6000601567ffffffffffffffff811115610a3157610a306120c9565b5b604051908082528060200260200182016040528015610a5f5781602001602082028036833780820191505090505b50905085818881518110610a7657610a75612a5b565b5b6020026020010181815250508415610aab57600181601481518110610a9e57610a9d612a5b565b5b6020026020010181815250505b600460009054906101000a900473ffffffffffffffffffffffffffffffffffffffff1673ffffffffffffffffffffffffffffffffffffffff166341fcaaf6610af1610e0c565b30846040518463ffffffff1660e01b8152600401610b1193929190612b48565b600060405180830381600087803b158015610b2b57600080fd5b505af1158015610b3f573d6000803e3d6000fd5b50505050610b4c83610e14565b50505050610b5861131e565b505050565b60008060149054906101000a900460ff16905090565b610b7b611327565b610b856000611c89565b565b60008060009054906101000a900473ffffffffffffffffffffffffffffffffffffffff16905090565b600063bc197c8160e01b905095945050505050565b610bcd611327565b610bd5610b5d565b15610be757610be2611d4d565b610bf0565b610bef611daf565b5b565b610bfa611327565b80600660006101000a81548160ff02191690831515021790555050565b60075481565b600063f23a6e6160e01b905095945050505050565b610c3a611327565b600073ffffffffffffffffffffffffffffffffffffffff168173ffffffffffffffffffffffffffffffffffffffff1603610cac5760006040517f1e4fbdf7000000000000000000000000000000000000000000000000000000008152600401610ca3919061206c565b60405180910390fd5b610cb581611c89565b50565b610cc0611327565b80600560008473ffffffffffffffffffffffffffffffffffffffff1673ffffffffffffffffffffffffffffffffffffffff16815260200190815260200160002060006101000a81548160ff0219169083151502179055505050565b60007f01ffc9a7000000000000000000000000000000000000000000000000000000007bffffffffffffffffffffffffffffffffffffffffffffffffffffffff1916827bffffffffffffffffffffffffffffffffffffffffffffffffffffffff1916149050919050565b610d8d610b5d565b15610dc4576040517fd93c066500000000000000000000000000000000000000000000000000000000815260040160405180910390fd5b565b600260015403610e02576040517f3ee5aeb500000000000000000000000000000000000000000000000000000000815260040160405180910390fd5b6002600181905550565b600033905090565b6000600360009054906101000a900473ffffffffffffffffffffffffffffffffffffffff1673ffffffffffffffffffffffffffffffffffffffff1663e53f714f306040518263ffffffff1660e01b8152600401610e71919061206c565b600060405180830381865afa158015610e8e573d6000803e3d6000fd5b505050506040513d6000823e3d601f19601f82011682018060405250810190610eb79190612c1d565b90506000805b8251811015610efb57828181518110610ed957610ed8612a5b565b5b602002602001015182610eec9190612793565b91508080600101915050610ebd565b506113888111610f40576040517f08c379a0000000000000000000000000000000000000000000000000000000008152600401610f3790612cd8565b60405180910390fd5b6000601567ffffffffffffffff811115610f5d57610f5c6120c9565b5b604051908082528060200260200182016040528015610f8b5781602001602082028036833780820191505090505b509050600042604051602001610fa19190612d19565b60405160208183030381529060405280519060200120905060005b858110156110db576000600382610fd39190612d63565b83901c604051602001610fe69190612dbf565b6040516020818303038152906040528051906020012060001c90506000858261100f9190612d63565b905060008060005b895181101561106357611044848b838151811061103757611036612a5b565b5b6020026020010151611e12565b80955081935050508115611056578092505b8080600101915050611017565b5086828151811061107757611076612a5b565b5b60200260200101805180919061108c90612dda565b815250508882815181106110a3576110a2612a5b565b5b6020026020010180518091906110b890612e22565b8152505087806110c790612e22565b985050505050508080600101915050610fbc565b50600360009054906101000a900473ffffffffffffffffffffffffffffffffffffffff1673ffffffffffffffffffffffffffffffffffffffff16632eb2c2d630611123610e0c565b600360009054906101000a900473ffffffffffffffffffffffffffffffffffffffff1673ffffffffffffffffffffffffffffffffffffffff16638c4132526040518163ffffffff1660e01b8152600401600060405180830381865afa158015611190573d6000803e3d6000fd5b505050506040513d6000823e3d601f19601f820116820180604052508101906111b99190612c1d565b866040518563ffffffff1660e01b81526004016111d99493929190612e7f565b600060405180830381600087803b1580156111f357600080fd5b505af1158015611207573d6000803e3d6000fd5b50505050846007600082825461121d9190612793565b92505081905550600460009054906101000a900473ffffffffffffffffffffffffffffffffffffffff1673ffffffffffffffffffffffffffffffffffffffff1663424f0eb461126a610e0c565b84600067ffffffffffffffff811115611286576112856120c9565b5b6040519080825280602002602001820160405280156112b45781602001602082028036833780820191505090505b506040518463ffffffff1660e01b81526004016112d393929190612ee5565b6020604051808303816000875af11580156112f2573d6000803e3d6000fd5b505050506040513d601f19601f820116820180604052508101906113169190612999565b505050505050565b60018081905550565b61132f610e0c565b73ffffffffffffffffffffffffffffffffffffffff1661134d610b87565b73ffffffffffffffffffffffffffffffffffffffff16146113ac57611370610e0c565b6040517f118cdaa70000000000000000000000000000000000000000000000000000000081526004016113a3919061206c565b60405180910390fd5b565b600080601484036113f4576040517f08c379a00000000000000000000000000000000000000000000000000000000081526004016113eb90612f76565b60405180910390fd5b6002831015611438576040517f08c379a000000000000000000000000000000000000000000000000000000000815260040161142f90612fe2565b60405180910390fd5b600583111561147c576040517f08c379a00000000000000000000000000000000000000000000000000000000081526004016114739061304e565b60405180910390fd5b6000604051806080016040528060405180610280016040528060038152602001600381526020016003815260200160048152602001600481526020016006815260200160068152602001600681526020016006815260200160078152602001600b8152602001600b8152602001600b8152602001600b8152602001600b815260200160118152602001601281526020016012815260200160128152602001601281525081526020016040518061028001604052806006815260200160068152602001600681526020016007815260200160078152602001600b8152602001600b8152602001600c8152602001600c8152602001600c81526020016014815260200160148152602001601581526020016015815260200160158152602001602181526020016021815260200160218152602001602281526020016022815250815260200160405180610280016040528060098152602001600a8152602001600a8152602001600b8152602001600b8152602001601181526020016012815260200160138152602001601381526020016014815260200160208152602001602081526020016021815260200160228152602001602281526020016034815260200160358152602001603581526020016036815260200160378152508152602001604051806102800160405280600e8152602001600e8152602001600f81526020016010815260200160118152602001601a8152602001601b8152602001601c8152602001601d8152602001601e81526020016030815260200160318152602001603281526020016032815260200160338152602001604e8152602001604f815260200160508152602001605181526020016052815250815250905060006040518060800160405280604051806102800160405280680d71b0fe0a28e000008152602001680d71b0fe0a28e000008152602001680d71b0fe0a28e000008152602001681ad5814560aa5c00008152602001681ad5814560aa5c000081526020016835659ef93f0fc4000081526020016835659ef93f0fc4000081526020016835659ef93f0fc4000081526020016835659ef93f0fc40000815260200168429fcd1c7a9b14000081526020016876b85af4e1f978000081526020016876b85af4e1f978000081526020016876b85af4e1f978000081526020016876b85af4e1f978000081526020016876b85af4e1f9780000815260200168c2e2a5acdfa94c0000815260200168cf4ca91b9465c00000815260200168cf4ca91b9465c00000815260200168cf4ca91b9465c00000815260200168cf4ca91b9465c00000815250815260200160405180610280016040528068280faf689c35ac0000815260200168280faf689c35ac0000815260200168280faf689c35ac00008152602001683549dd8bd7c0fc00008152602001683549dd8bd7c0fc0000815260200168697e2cd1a66e280000815260200168697e2cd1a66e280000815260200168766516acac0d200000815260200168766516acac0d200000815260200168766516acac0d200000815260200168db2be56744984c0000815260200168db2be56744984c0000815260200168e77a27689205f80000815260200168e77a27689205f80000815260200168e77a27689205f800008152602001690175d539876d15c000008152602001690175d539876d15c000008152602001690175d539876d15c00000815260200169018145701d800d2c0000815260200169018145701d800d2c0000815250815260200160405180610280016040528068424c88d444aebc00008152602001684f4f341cb19c7c00008152602001684f4f341cb19c7c00008152602001685c51df651e8a3c00008152602001685c51df651e8a3c0000815260200168a8dd4f1c05cdcc0000815260200168b56313f821d9080000815260200168c1daf81d8a3ce00000815260200168c1daf81d8a3ce00000815260200168ce44fb8c3ef9540000815260200169015ddf3e153e13180000815260200169015ddf3e153e1318000081526020016901695d556204b1e800008152602001690174db6caecb50b800008152602001690174db6caecb50b8000081526020016902380375ed2d3ef800008152602001690242347c191c2c6800008152602001690242347c191c2c680000815260200169024c6582450b19d8000081526020016902567ac70392b880000081525081526020016040518061028001604052806875cc6ed2f3dbd4000081526020016875cc6ed2f3dbd4000081526020016882979740922c0400008152602001688f46fe40c92d6c00008152602001689be8848a4c87700000815260200169010a8d15289e13b4000081526020016901168812e1b5950800008152602001690122674f2d65c7940000815260200169012e468b7915fa200000815260200169013a0a06575edde40000815260200169020282158686e06c0000815260200169020d065ffaabba34000081526020016902177cc9b81cec98000081526020016902177cc9b81cec9800008152602001690221e552beda7798000081526020016903211df2becce2a800008152602001690329a0c2cafa8afc0000815260200169033215b220748bec0000815260200169033a7cc0bf3ae57800008152602001690342d5eea74d97a0000081525081525090506000600286611c1b919061306e565b9050828160048110611c3057611c2f612a5b565b5b60200201518760148110611c4757611c46612a5b565b5b60200201519350818160048110611c6157611c60612a5b565b5b60200201518760148110611c7857611c77612a5b565b5b602002015194505050509250929050565b60008060009054906101000a900473ffffffffffffffffffffffffffffffffffffffff169050816000806101000a81548173ffffffffffffffffffffffffffffffffffffffff021916908373ffffffffffffffffffffffffffffffffffffffff1602179055508173ffffffffffffffffffffffffffffffffffffffff168173ffffffffffffffffffffffffffffffffffffffff167f8be0079c531659141344cd1fd0a4f28419497f9722a3daafe3b4186f6b6457e060405160405180910390a35050565b611d55611e3a565b60008060146101000a81548160ff0219169083151502179055507f5db9ee0a495bf2e6ff9c91a7834c1ba4fdd244a5e8aa4e537bd38aeae4b073aa611d98610e0c565b604051611da5919061206c565b60405180910390a1565b611db7610d85565b6001600060146101000a81548160ff0219169083151502179055507f62e78cea01bee320cd4e420270b5ea74000d11b0c9f74754ebdbfc544b05a258611dfb610e0c565b604051611e08919061206c565b60405180910390a1565b60008083831115611e295760008091509150611e33565b6001838503915091505b9250929050565b611e42610b5d565b611e78576040517f8dfc202b00000000000000000000000000000000000000000000000000000000815260040160405180910390fd5b565b6000604051905090565b600080fd5b600080fd5b60007fffffffff0000000000000000000000000000000000000000000000000000000082169050919050565b611ec381611e8e565b8114611ece57600080fd5b50565b600081359050611ee081611eba565b92915050565b600060208284031215611efc57611efb611e84565b5b6000611f0a84828501611ed1565b91505092915050565b60008115159050919050565b611f2881611f13565b82525050565b6000602082019050611f436000830184611f1f565b92915050565b6000819050919050565b611f5c81611f49565b8114611f6757600080fd5b50565b600081359050611f7981611f53565b92915050565b600060208284031215611f9557611f94611e84565b5b6000611fa384828501611f6a565b91505092915050565b611fb581611f13565b8114611fc057600080fd5b50565b600081359050611fd281611fac565b92915050565b600080600060608486031215611ff157611ff0611e84565b5b6000611fff86828701611f6a565b935050602061201086828701611f6a565b925050604061202186828701611fc3565b9150509250925092565b600073ffffffffffffffffffffffffffffffffffffffff82169050919050565b60006120568261202b565b9050919050565b6120668161204b565b82525050565b6000602082019050612081600083018461205d565b92915050565b6120908161204b565b811461209b57600080fd5b50565b6000813590506120ad81612087565b92915050565b600080fd5b6000601f19601f8301169050919050565b7f4e487b7100000000000000000000000000000000000000000000000000000000600052604160045260246000fd5b612101826120b8565b810181811067ffffffffffffffff821117156121205761211f6120c9565b5b80604052505050565b6000612133611e7a565b905061213f82826120f8565b919050565b600067ffffffffffffffff82111561215f5761215e6120c9565b5b602082029050602081019050919050565b600080fd5b600061218861218384612144565b612129565b905080838252602082019050602084028301858111156121ab576121aa612170565b5b835b818110156121d457806121c08882611f6a565b8452602084019350506020810190506121ad565b5050509392505050565b600082601f8301126121f3576121f26120b3565b5b8135612203848260208601612175565b91505092915050565b600080fd5b600067ffffffffffffffff82111561222c5761222b6120c9565b5b612235826120b8565b9050602081019050919050565b82818337600083830152505050565b600061226461225f84612211565b612129565b9050828152602081018484840111156122805761227f61220c565b5b61228b848285612242565b509392505050565b600082601f8301126122a8576122a76120b3565b5b81356122b8848260208601612251565b91505092915050565b600080600080600060a086880312156122dd576122dc611e84565b5b60006122eb8882890161209e565b95505060206122fc8882890161209e565b945050604086013567ffffffffffffffff81111561231d5761231c611e89565b5b612329888289016121de565b935050606086013567ffffffffffffffff81111561234a57612349611e89565b5b612356888289016121de565b925050608086013567ffffffffffffffff81111561237757612376611e89565b5b61238388828901612293565b9150509295509295909350565b61239981611e8e565b82525050565b60006020820190506123b46000830184612390565b92915050565b6000602082840312156123d0576123cf611e84565b5b60006123de84828501611fc3565b91505092915050565b6123f081611f49565b82525050565b600060208201905061240b60008301846123e7565b92915050565b600080600080600060a0868803121561242d5761242c611e84565b5b600061243b8882890161209e565b955050602061244c8882890161209e565b945050604061245d88828901611f6a565b935050606061246e88828901611f6a565b925050608086013567ffffffffffffffff81111561248f5761248e611e89565b5b61249b88828901612293565b9150509295509295909350565b6000602082840312156124be576124bd611e84565b5b60006124cc8482850161209e565b91505092915050565b600080604083850312156124ec576124eb611e84565b5b60006124fa8582860161209e565b925050602061250b85828601611fc3565b9150509250929050565b600082825260208201905092915050565b7f417474656d7074696e6720746f206472617720746f6f2066657720636172647360008201527f2e00000000000000000000000000000000000000000000000000000000000000602082015250565b6000612582602183612515565b915061258d82612526565b604082019050919050565b600060208201905081810360008301526125b181612575565b9050919050565b7f417474656d7074696e6720746f206472617720746f6f206d616e79206361726460008201527f732e000000000000000000000000000000000000000000000000000000000000602082015250565b6000612614602283612515565b915061261f826125b8565b604082019050919050565b6000602082019050818103600083015261264381612607565b9050919050565b7f4163636f756e74206e6f742077686974656c69737465642e0000000000000000600082015250565b6000612680601883612515565b915061268b8261264a565b602082019050919050565b600060208201905081810360008301526126af81612673565b9050919050565b7f4e487b7100000000000000000000000000000000000000000000000000000000600052601160045260246000fd5b60006126f082611f49565b91506126fb83611f49565b925082820261270981611f49565b915082820484148315176127205761271f6126b6565b5b5092915050565b7f496e76616c69642064726177207061796d656e742e0000000000000000000000600082015250565b600061275d601583612515565b915061276882612727565b602082019050919050565b6000602082019050818103600083015261278c81612750565b9050919050565b600061279e82611f49565b91506127a983611f49565b92508282019050808211156127c1576127c06126b6565b5b92915050565b60006060820190506127dc600083018661205d565b6127e9602083018561205d565b6127f660408301846123e7565b949350505050565b60008151905061280d81611fac565b92915050565b60006020828403121561282957612828611e84565b5b6000612837848285016127fe565b91505092915050565b7f47616d6520636f756c64206e6f74207472616e73666572204341524420436f6960008201527f6e2e000000000000000000000000000000000000000000000000000000000000602082015250565b600061289c602283612515565b91506128a782612840565b604082019050919050565b600060208201905081810360008301526128cb8161288f565b9050919050565b600081905092915050565b50565b60006128ed6000836128d2565b91506128f8826128dd565b600082019050919050565b600061290e826128e0565b9150819050919050565b7f4661696c656420746f2077697468647261772062616c616e6365000000000000600082015250565b600061294e601a83612515565b915061295982612918565b602082019050919050565b6000602082019050818103600083015261297d81612941565b9050919050565b60008151905061299381611f53565b92915050565b6000602082840312156129af576129ae611e84565b5b60006129bd84828501612984565b91505092915050565b60006040820190506129db600083018561205d565b6129e860208301846123e7565b9392505050565b7f47616d6520636f756c64206e6f7420636f6e73756d65204341524420436f696e600082015250565b6000612a25602083612515565b9150612a30826129ef565b602082019050919050565b60006020820190508181036000830152612a5481612a18565b9050919050565b7f4e487b7100000000000000000000000000000000000000000000000000000000600052603260045260246000fd5b600081519050919050565b600082825260208201905092915050565b6000819050602082019050919050565b612abf81611f49565b82525050565b6000612ad18383612ab6565b60208301905092915050565b6000602082019050919050565b6000612af582612a8a565b612aff8185612a95565b9350612b0a83612aa6565b8060005b83811015612b3b578151612b228882612ac5565b9750612b2d83612add565b925050600181019050612b0e565b5085935050505092915050565b6000606082019050612b5d600083018661205d565b612b6a602083018561205d565b8181036040830152612b7c8184612aea565b9050949350505050565b6000612b99612b9484612144565b612129565b90508083825260208201905060208402830185811115612bbc57612bbb612170565b5b835b81811015612be55780612bd18882612984565b845260208401935050602081019050612bbe565b5050509392505050565b600082601f830112612c0457612c036120b3565b5b8151612c14848260208601612b86565b91505092915050565b600060208284031215612c3357612c32611e84565b5b600082015167ffffffffffffffff811115612c5157612c50611e89565b5b612c5d84828501612bef565b91505092915050565b7f4e6f7420656e6f75676820636172647320696e206465636b20746f206472617760008201527f2e00000000000000000000000000000000000000000000000000000000000000602082015250565b6000612cc2602183612515565b9150612ccd82612c66565b604082019050919050565b60006020820190508181036000830152612cf181612cb5565b9050919050565b6000819050919050565b612d13612d0e82611f49565b612cf8565b82525050565b6000612d258284612d02565b60208201915081905092915050565b7f4e487b7100000000000000000000000000000000000000000000000000000000600052601260045260246000fd5b6000612d6e82611f49565b9150612d7983611f49565b925082612d8957612d88612d34565b5b828206905092915050565b6000819050919050565b6000819050919050565b612db9612db482612d94565b612d9e565b82525050565b6000612dcb8284612da8565b60208201915081905092915050565b6000612de582611f49565b91507fffffffffffffffffffffffffffffffffffffffffffffffffffffffffffffffff8203612e1757612e166126b6565b5b600182019050919050565b6000612e2d82611f49565b915060008203612e4057612e3f6126b6565b5b600182039050919050565b600082825260208201905092915050565b6000612e69600083612e4b565b9150612e74826128dd565b600082019050919050565b600060a082019050612e94600083018761205d565b612ea1602083018661205d565b8181036040830152612eb38185612aea565b90508181036060830152612ec78184612aea565b90508181036080830152612eda81612e5c565b905095945050505050565b6000606082019050612efa600083018661205d565b8181036020830152612f0c8185612aea565b90508181036040830152612f208184612aea565b9050949350505050565b7f43616e6e6f74206d656c642057696c6463617264732e00000000000000000000600082015250565b6000612f60601683612515565b9150612f6b82612f2a565b602082019050919050565b60006020820190508181036000830152612f8f81612f53565b9050919050565b7f43616e6e6f74206d656c64206665776572207468616e20322063617264732e00600082015250565b6000612fcc601f83612515565b9150612fd782612f96565b602082019050919050565b60006020820190508181036000830152612ffb81612fbf565b9050919050565b7f43616e6e6f74206d656c64206d6f7265207468616e20352063617264732e0000600082015250565b6000613038601e83612515565b915061304382613002565b602082019050919050565b600060208201905081810360008301526130678161302b565b9050919050565b600061307982611f49565b915061308483611f49565b925082820390508181111561309c5761309b6126b6565b5b9291505056fea26469706673582212209f2cda388538f1572410f651104d72c7367601b6436869fb9760eb86d8cd08dc64736f6c63430008180033",
  "linkReferences": {},
  "deployedLinkReferences": {}
}