{
  "_format": "hh-sol-artifact-1",
  "contractName": "Game",
  "sourceName": "contracts/RoyalFlush/Game.sol",
  "abi": [
    {
      "inputs": [
        {
          "internalType": "address",
          "name": "cardCoin",
          "type": "address"
        },
        {
          "internalType": "address",
          "name": "baseCards",
          "type": "address"
        },
        {
          "internalType": "address",
          "name": "yc",
          "type": "address"
        }
      ],
      "stateMutability": "nonpayable",
      "type": "constructor"
    },
    {
      "inputs": [],
      "name": "AccessControlBadConfirmation",
      "type": "error"
    },
    {
      "inputs": [
        {
          "internalType": "address",
          "name": "account",
          "type": "address"
        },
        {
          "internalType": "bytes32",
          "name": "neededRole",
          "type": "bytes32"
        }
      ],
      "name": "AccessControlUnauthorizedAccount",
      "type": "error"
    },
    {
      "inputs": [],
      "name": "EnforcedPause",
      "type": "error"
    },
    {
      "inputs": [],
      "name": "ExpectedPause",
      "type": "error"
    },
    {
      "inputs": [
        {
          "internalType": "address",
          "name": "owner",
          "type": "address"
        }
      ],
      "name": "OwnableInvalidOwner",
      "type": "error"
    },
    {
      "inputs": [
        {
          "internalType": "address",
          "name": "account",
          "type": "address"
        }
      ],
      "name": "OwnableUnauthorizedAccount",
      "type": "error"
    },
    {
      "inputs": [],
      "name": "ReentrancyGuardReentrantCall",
      "type": "error"
    },
    {
      "anonymous": false,
      "inputs": [
        {
          "indexed": true,
          "internalType": "address",
          "name": "previousOwner",
          "type": "address"
        },
        {
          "indexed": true,
          "internalType": "address",
          "name": "newOwner",
          "type": "address"
        }
      ],
      "name": "OwnershipTransferred",
      "type": "event"
    },
    {
      "anonymous": false,
      "inputs": [
        {
          "indexed": true,
          "internalType": "address",
          "name": "player",
          "type": "address"
        }
      ],
      "name": "PackIssued",
      "type": "event"
    },
    {
      "anonymous": false,
      "inputs": [
        {
          "indexed": false,
          "internalType": "address",
          "name": "account",
          "type": "address"
        }
      ],
      "name": "Paused",
      "type": "event"
    },
    {
      "anonymous": false,
      "inputs": [
        {
          "indexed": true,
          "internalType": "bytes32",
          "name": "role",
          "type": "bytes32"
        },
        {
          "indexed": true,
          "internalType": "bytes32",
          "name": "previousAdminRole",
          "type": "bytes32"
        },
        {
          "indexed": true,
          "internalType": "bytes32",
          "name": "newAdminRole",
          "type": "bytes32"
        }
      ],
      "name": "RoleAdminChanged",
      "type": "event"
    },
    {
      "anonymous": false,
      "inputs": [
        {
          "indexed": true,
          "internalType": "bytes32",
          "name": "role",
          "type": "bytes32"
        },
        {
          "indexed": true,
          "internalType": "address",
          "name": "account",
          "type": "address"
        },
        {
          "indexed": true,
          "internalType": "address",
          "name": "sender",
          "type": "address"
        }
      ],
      "name": "RoleGranted",
      "type": "event"
    },
    {
      "anonymous": false,
      "inputs": [
        {
          "indexed": true,
          "internalType": "bytes32",
          "name": "role",
          "type": "bytes32"
        },
        {
          "indexed": true,
          "internalType": "address",
          "name": "account",
          "type": "address"
        },
        {
          "indexed": true,
          "internalType": "address",
          "name": "sender",
          "type": "address"
        }
      ],
      "name": "RoleRevoked",
      "type": "event"
    },
    {
      "anonymous": false,
      "inputs": [
        {
          "indexed": false,
          "internalType": "address",
          "name": "account",
          "type": "address"
        }
      ],
      "name": "Unpaused",
      "type": "event"
    },
    {
      "inputs": [],
      "name": "DEFAULT_ADMIN_ROLE",
      "outputs": [
        {
          "internalType": "bytes32",
          "name": "",
          "type": "bytes32"
        }
      ],
      "stateMutability": "view",
      "type": "function"
    },
    {
      "inputs": [
        {
          "internalType": "address",
          "name": "player_",
          "type": "address"
        }
      ],
      "name": "allPacksIssuedToPlayer",
      "outputs": [
        {
          "components": [
            {
              "internalType": "uint256",
              "name": "id",
              "type": "uint256"
            },
            {
              "internalType": "address",
              "name": "player",
              "type": "address"
            },
            {
              "internalType": "uint256[]",
              "name": "yieldCardIds",
              "type": "uint256[]"
            },
            {
              "internalType": "uint256[]",
              "name": "baseCardAmounts",
              "type": "uint256[]"
            }
          ],
          "internalType": "struct Pack[]",
          "name": "",
          "type": "tuple[]"
        }
      ],
      "stateMutability": "view",
      "type": "function"
    },
    {
      "inputs": [
        {
          "internalType": "bytes32",
          "name": "role",
          "type": "bytes32"
        }
      ],
      "name": "getRoleAdmin",
      "outputs": [
        {
          "internalType": "bytes32",
          "name": "",
          "type": "bytes32"
        }
      ],
      "stateMutability": "view",
      "type": "function"
    },
    {
      "inputs": [
        {
          "internalType": "address",
          "name": "account",
          "type": "address"
        }
      ],
      "name": "grantRFRole",
      "outputs": [],
      "stateMutability": "nonpayable",
      "type": "function"
    },
    {
      "inputs": [
        {
          "internalType": "bytes32",
          "name": "role",
          "type": "bytes32"
        },
        {
          "internalType": "address",
          "name": "account",
          "type": "address"
        }
      ],
      "name": "grantRole",
      "outputs": [],
      "stateMutability": "nonpayable",
      "type": "function"
    },
    {
      "inputs": [
        {
          "internalType": "bytes32",
          "name": "role",
          "type": "bytes32"
        },
        {
          "internalType": "address",
          "name": "account",
          "type": "address"
        }
      ],
      "name": "hasRole",
      "outputs": [
        {
          "internalType": "bool",
          "name": "",
          "type": "bool"
        }
      ],
      "stateMutability": "view",
      "type": "function"
    },
    {
      "inputs": [
        {
          "internalType": "address",
          "name": "player_",
          "type": "address"
        },
        {
          "internalType": "uint256[]",
          "name": "baseCardAmounts_",
          "type": "uint256[]"
        },
        {
          "internalType": "uint256[]",
          "name": "yieldCardIds_",
          "type": "uint256[]"
        }
      ],
      "name": "issuePack",
      "outputs": [
        {
          "internalType": "uint256",
          "name": "newPackId",
          "type": "uint256"
        }
      ],
      "stateMutability": "nonpayable",
      "type": "function"
    },
    {
      "inputs": [],
      "name": "owner",
      "outputs": [
        {
          "internalType": "address",
          "name": "",
          "type": "address"
        }
      ],
      "stateMutability": "view",
      "type": "function"
    },
    {
      "inputs": [],
      "name": "paused",
      "outputs": [
        {
          "internalType": "bool",
          "name": "",
          "type": "bool"
        }
      ],
      "stateMutability": "view",
      "type": "function"
    },
    {
      "inputs": [],
      "name": "renounceOwnership",
      "outputs": [],
      "stateMutability": "nonpayable",
      "type": "function"
    },
    {
      "inputs": [
        {
          "internalType": "bytes32",
          "name": "role",
          "type": "bytes32"
        },
        {
          "internalType": "address",
          "name": "callerConfirmation",
          "type": "address"
        }
      ],
      "name": "renounceRole",
      "outputs": [],
      "stateMutability": "nonpayable",
      "type": "function"
    },
    {
      "inputs": [
        {
          "internalType": "bytes32",
          "name": "role",
          "type": "bytes32"
        },
        {
          "internalType": "address",
          "name": "account",
          "type": "address"
        }
      ],
      "name": "revokeRole",
      "outputs": [],
      "stateMutability": "nonpayable",
      "type": "function"
    },
    {
      "inputs": [
        {
          "internalType": "bytes4",
          "name": "interfaceId",
          "type": "bytes4"
        }
      ],
      "name": "supportsInterface",
      "outputs": [
        {
          "internalType": "bool",
          "name": "",
          "type": "bool"
        }
      ],
      "stateMutability": "view",
      "type": "function"
    },
    {
      "inputs": [],
      "name": "togglePause",
      "outputs": [],
      "stateMutability": "nonpayable",
      "type": "function"
    },
    {
      "inputs": [
        {
          "internalType": "address",
          "name": "from",
          "type": "address"
        },
        {
          "internalType": "address",
          "name": "to",
          "type": "address"
        },
        {
          "internalType": "uint256[]",
          "name": "amounts",
          "type": "uint256[]"
        }
      ],
      "name": "transferBC",
      "outputs": [],
      "stateMutability": "nonpayable",
      "type": "function"
    },
    {
      "inputs": [
        {
          "internalType": "address",
          "name": "from",
          "type": "address"
        },
        {
          "internalType": "address",
          "name": "to",
          "type": "address"
        },
        {
          "internalType": "uint256",
          "name": "amount",
          "type": "uint256"
        }
      ],
      "name": "transferCARD",
      "outputs": [
        {
          "internalType": "bool",
          "name": "success",
          "type": "bool"
        }
      ],
      "stateMutability": "nonpayable",
      "type": "function"
    },
    {
      "inputs": [
        {
          "internalType": "address",
          "name": "newOwner",
          "type": "address"
        }
      ],
      "name": "transferOwnership",
      "outputs": [],
      "stateMutability": "nonpayable",
      "type": "function"
    },
    {
      "inputs": [
        {
          "internalType": "address",
          "name": "from",
          "type": "address"
        },
        {
          "internalType": "address",
          "name": "to",
          "type": "address"
        },
        {
          "internalType": "uint256[]",
          "name": "ids",
          "type": "uint256[]"
        }
      ],
      "name": "transferYC",
      "outputs": [],
      "stateMutability": "nonpayable",
      "type": "function"
    }
  ],
  "bytecode": "0x60806040527f49132f8214007145a7d9e9656f52dfb6a6c20d8ed3ab40e50356de44acb47dbe6004553480156200003557600080fd5b50604051620022d4380380620022d483398181016040528101906200005b9190620004aa565b6200006b6200020660201b60201c565b600073ffffffffffffffffffffffffffffffffffffffff168173ffffffffffffffffffffffffffffffffffffffff1603620000e05760006040517f1e4fbdf7000000000000000000000000000000000000000000000000000000008152600401620000d7919062000517565b60405180910390fd5b620000f1816200020e60201b60201c565b506000600260006101000a81548160ff0219169083151502179055506001600381905550620001396000801b6200012d6200020660201b60201c565b620002d260201b60201c565b5082600760006101000a81548173ffffffffffffffffffffffffffffffffffffffff021916908373ffffffffffffffffffffffffffffffffffffffff16021790555081600860006101000a81548173ffffffffffffffffffffffffffffffffffffffff021916908373ffffffffffffffffffffffffffffffffffffffff16021790555080600960006101000a81548173ffffffffffffffffffffffffffffffffffffffff021916908373ffffffffffffffffffffffffffffffffffffffff16021790555050505062000534565b600033905090565b60008060009054906101000a900473ffffffffffffffffffffffffffffffffffffffff169050816000806101000a81548173ffffffffffffffffffffffffffffffffffffffff021916908373ffffffffffffffffffffffffffffffffffffffff1602179055508173ffffffffffffffffffffffffffffffffffffffff168173ffffffffffffffffffffffffffffffffffffffff167f8be0079c531659141344cd1fd0a4f28419497f9722a3daafe3b4186f6b6457e060405160405180910390a35050565b6000620002e68383620003d560201b60201c565b620003ca57600180600085815260200190815260200160002060000160008473ffffffffffffffffffffffffffffffffffffffff1673ffffffffffffffffffffffffffffffffffffffff16815260200190815260200160002060006101000a81548160ff021916908315150217905550620003666200020660201b60201c565b73ffffffffffffffffffffffffffffffffffffffff168273ffffffffffffffffffffffffffffffffffffffff16847f2f8788117e7eff1d82e926ec794901d17c78024a50270940304540a733656f0d60405160405180910390a460019050620003cf565b600090505b92915050565b60006001600084815260200190815260200160002060000160008373ffffffffffffffffffffffffffffffffffffffff1673ffffffffffffffffffffffffffffffffffffffff16815260200190815260200160002060009054906101000a900460ff16905092915050565b600080fd5b600073ffffffffffffffffffffffffffffffffffffffff82169050919050565b6000620004728262000445565b9050919050565b620004848162000465565b81146200049057600080fd5b50565b600081519050620004a48162000479565b92915050565b600080600060608486031215620004c657620004c562000440565b5b6000620004d68682870162000493565b9350506020620004e98682870162000493565b9250506040620004fc8682870162000493565b9150509250925092565b620005118162000465565b82525050565b60006020820190506200052e600083018462000506565b92915050565b611d9080620005446000396000f3fe608060405234801561001057600080fd5b50600436106101165760003560e01c80638120ff71116100a2578063b3d7ccf011610071578063b3d7ccf0146102f3578063c246474a1461030f578063c4ae31681461032b578063d547741f14610335578063f2fde38b1461035157610116565b80638120ff71146102575780638da5cb5b1461028757806391d14854146102a5578063a217fddf146102d557610116565b806336568abe116100e957806336568abe146101c757806341fcaaf6146101e3578063424f0eb4146101ff5780635c975abb1461022f578063715018a61461024d57610116565b806301ffc9a71461011b578063193668bc1461014b578063248a9ca31461017b5780632f2ff15d146101ab575b600080fd5b6101356004803603810190610130919061130b565b61036d565b6040516101429190611353565b60405180910390f35b61016560048036038101906101609190611402565b6103e7565b6040516101729190611353565b60405180910390f35b6101956004803603810190610190919061148b565b6104a1565b6040516101a291906114c7565b60405180910390f35b6101c560048036038101906101c091906114e2565b6104c1565b005b6101e160048036038101906101dc91906114e2565b6104e3565b005b6101fd60048036038101906101f8919061167b565b61055e565b005b61021960048036038101906102149190611745565b61069e565b60405161022691906117e4565b60405180910390f35b610237610881565b6040516102449190611353565b60405180910390f35b610255610898565b005b610271600480360381019061026c91906117ff565b6108ac565b60405161027e9190611a25565b60405180910390f35b61028f610a5a565b60405161029c9190611a56565b60405180910390f35b6102bf60048036038101906102ba91906114e2565b610a83565b6040516102cc9190611353565b60405180910390f35b6102dd610aee565b6040516102ea91906114c7565b60405180910390f35b61030d600480360381019061030891906117ff565b610af5565b005b6103296004803603810190610324919061167b565b610b12565b005b610333610be9565b005b61034f600480360381019061034a91906114e2565b610c1c565b005b61036b600480360381019061036691906117ff565b610c3e565b005b60007f7965db0b000000000000000000000000000000000000000000000000000000007bffffffffffffffffffffffffffffffffffffffffffffffffffffffff1916827bffffffffffffffffffffffffffffffffffffffffffffffffffffffff191614806103e057506103df82610cc4565b5b9050919050565b60006004546103f581610d2e565b600760009054906101000a900473ffffffffffffffffffffffffffffffffffffffff1673ffffffffffffffffffffffffffffffffffffffff166323b872dd8686866040518463ffffffff1660e01b815260040161045493929190611a71565b6020604051808303816000875af1158015610473573d6000803e3d6000fd5b505050506040513d601f19601f820116820180604052508101906104979190611ad4565b9150509392505050565b600060016000838152602001908152602001600020600101549050919050565b6104ca826104a1565b6104d381610d2e565b6104dd8383610d42565b50505050565b6104eb610e33565b73ffffffffffffffffffffffffffffffffffffffff168173ffffffffffffffffffffffffffffffffffffffff161461054f576040517f6697b23200000000000000000000000000000000000000000000000000000000815260040160405180910390fd5b6105598282610e3b565b505050565b60045461056a81610d2e565b6000600860009054906101000a900473ffffffffffffffffffffffffffffffffffffffff1673ffffffffffffffffffffffffffffffffffffffff16638c4132526040518163ffffffff1660e01b8152600401600060405180830381865afa1580156105d9573d6000803e3d6000fd5b505050506040513d6000823e3d601f19601f820116820180604052508101906106029190611bad565b9050600860009054906101000a900473ffffffffffffffffffffffffffffffffffffffff1673ffffffffffffffffffffffffffffffffffffffff16632eb2c2d6868684876040518563ffffffff1660e01b81526004016106659493929190611c9c565b600060405180830381600087803b15801561067f57600080fd5b505af1158015610693573d6000803e3d6000fd5b505050505050505050565b60006004546106ac81610d2e565b6106b66005610f2e565b9150600060405180608001604052808481526020018873ffffffffffffffffffffffffffffffffffffffff168152602001868680806020026020016040519081016040528093929190818152602001838360200280828437600081840152601f19601f820116905080830192505050505050508152602001878152509050600660008873ffffffffffffffffffffffffffffffffffffffff1673ffffffffffffffffffffffffffffffffffffffff1681526020019081526020016000208190806001815401808255809150506001900390600052602060002090600402016000909190919091506000820151816000015560208201518160010160006101000a81548173ffffffffffffffffffffffffffffffffffffffff021916908373ffffffffffffffffffffffffffffffffffffffff160217905550604082015181600201908051906020019061080a929190611235565b506060820151816003019080519060200190610827929190611235565b5050506108346005610f3c565b8673ffffffffffffffffffffffffffffffffffffffff167f0a69097723caf2dfcaed66695a8620c2542029a6c1cafd21f43a35a815b8b3e860405160405180910390a25050949350505050565b6000600260009054906101000a900460ff16905090565b6108a0610f52565b6108aa6000610fd9565b565b6060600660008373ffffffffffffffffffffffffffffffffffffffff1673ffffffffffffffffffffffffffffffffffffffff168152602001908152602001600020805480602002602001604051908101604052809291908181526020016000905b82821015610a4f5783829060005260206000209060040201604051806080016040529081600082015481526020016001820160009054906101000a900473ffffffffffffffffffffffffffffffffffffffff1673ffffffffffffffffffffffffffffffffffffffff1673ffffffffffffffffffffffffffffffffffffffff168152602001600282018054806020026020016040519081016040528092919081815260200182805480156109df57602002820191906000526020600020905b8154815260200190600101908083116109cb575b5050505050815260200160038201805480602002602001604051908101604052809291908181526020018280548015610a3757602002820191906000526020600020905b815481526020019060010190808311610a23575b5050505050815250508152602001906001019061090d565b505050509050919050565b60008060009054906101000a900473ffffffffffffffffffffffffffffffffffffffff16905090565b60006001600084815260200190815260200160002060000160008373ffffffffffffffffffffffffffffffffffffffff1673ffffffffffffffffffffffffffffffffffffffff16815260200190815260200160002060009054906101000a900460ff16905092915050565b6000801b81565b6000801b610b0281610d2e565b610b0e600454836104c1565b5050565b600454610b1e81610d2e565b60005b8251811015610be257600960009054906101000a900473ffffffffffffffffffffffffffffffffffffffff1673ffffffffffffffffffffffffffffffffffffffff166342842e0e8686868581518110610b7d57610b7c611d02565b5b60200260200101516040518463ffffffff1660e01b8152600401610ba393929190611a71565b600060405180830381600087803b158015610bbd57600080fd5b505af1158015610bd1573d6000803e3d6000fd5b505050508080600101915050610b21565b5050505050565b6000801b610bf681610d2e565b610bfe610881565b15610c1057610c0b61109d565b610c19565b610c18611100565b5b50565b610c25826104a1565b610c2e81610d2e565b610c388383610e3b565b50505050565b610c46610f52565b600073ffffffffffffffffffffffffffffffffffffffff168173ffffffffffffffffffffffffffffffffffffffff1603610cb85760006040517f1e4fbdf7000000000000000000000000000000000000000000000000000000008152600401610caf9190611a56565b60405180910390fd5b610cc181610fd9565b50565b60007f01ffc9a7000000000000000000000000000000000000000000000000000000007bffffffffffffffffffffffffffffffffffffffffffffffffffffffff1916827bffffffffffffffffffffffffffffffffffffffffffffffffffffffff1916149050919050565b610d3f81610d3a610e33565b611163565b50565b6000610d4e8383610a83565b610e2857600180600085815260200190815260200160002060000160008473ffffffffffffffffffffffffffffffffffffffff1673ffffffffffffffffffffffffffffffffffffffff16815260200190815260200160002060006101000a81548160ff021916908315150217905550610dc5610e33565b73ffffffffffffffffffffffffffffffffffffffff168273ffffffffffffffffffffffffffffffffffffffff16847f2f8788117e7eff1d82e926ec794901d17c78024a50270940304540a733656f0d60405160405180910390a460019050610e2d565b600090505b92915050565b600033905090565b6000610e478383610a83565b15610f235760006001600085815260200190815260200160002060000160008473ffffffffffffffffffffffffffffffffffffffff1673ffffffffffffffffffffffffffffffffffffffff16815260200190815260200160002060006101000a81548160ff021916908315150217905550610ec0610e33565b73ffffffffffffffffffffffffffffffffffffffff168273ffffffffffffffffffffffffffffffffffffffff16847ff6391f5c32d9c69d2a47ea670b442974b53935d1edc7fd64eb21e047a839171b60405160405180910390a460019050610f28565b600090505b92915050565b600081600001549050919050565b6001816000016000828254019250508190555050565b610f5a610e33565b73ffffffffffffffffffffffffffffffffffffffff16610f78610a5a565b73ffffffffffffffffffffffffffffffffffffffff1614610fd757610f9b610e33565b6040517f118cdaa7000000000000000000000000000000000000000000000000000000008152600401610fce9190611a56565b60405180910390fd5b565b60008060009054906101000a900473ffffffffffffffffffffffffffffffffffffffff169050816000806101000a81548173ffffffffffffffffffffffffffffffffffffffff021916908373ffffffffffffffffffffffffffffffffffffffff1602179055508173ffffffffffffffffffffffffffffffffffffffff168173ffffffffffffffffffffffffffffffffffffffff167f8be0079c531659141344cd1fd0a4f28419497f9722a3daafe3b4186f6b6457e060405160405180910390a35050565b6110a56111b4565b6000600260006101000a81548160ff0219169083151502179055507f5db9ee0a495bf2e6ff9c91a7834c1ba4fdd244a5e8aa4e537bd38aeae4b073aa6110e9610e33565b6040516110f69190611a56565b60405180910390a1565b6111086111f4565b6001600260006101000a81548160ff0219169083151502179055507f62e78cea01bee320cd4e420270b5ea74000d11b0c9f74754ebdbfc544b05a25861114c610e33565b6040516111599190611a56565b60405180910390a1565b61116d8282610a83565b6111b05780826040517fe2517d3f0000000000000000000000000000000000000000000000000000000081526004016111a7929190611d31565b60405180910390fd5b5050565b6111bc610881565b6111f2576040517f8dfc202b00000000000000000000000000000000000000000000000000000000815260040160405180910390fd5b565b6111fc610881565b15611233576040517fd93c066500000000000000000000000000000000000000000000000000000000815260040160405180910390fd5b565b828054828255906000526020600020908101928215611271579160200282015b82811115611270578251825591602001919060010190611255565b5b50905061127e9190611282565b5090565b5b8082111561129b576000816000905550600101611283565b5090565b6000604051905090565b600080fd5b600080fd5b60007fffffffff0000000000000000000000000000000000000000000000000000000082169050919050565b6112e8816112b3565b81146112f357600080fd5b50565b600081359050611305816112df565b92915050565b600060208284031215611321576113206112a9565b5b600061132f848285016112f6565b91505092915050565b60008115159050919050565b61134d81611338565b82525050565b60006020820190506113686000830184611344565b92915050565b600073ffffffffffffffffffffffffffffffffffffffff82169050919050565b60006113998261136e565b9050919050565b6113a98161138e565b81146113b457600080fd5b50565b6000813590506113c6816113a0565b92915050565b6000819050919050565b6113df816113cc565b81146113ea57600080fd5b50565b6000813590506113fc816113d6565b92915050565b60008060006060848603121561141b5761141a6112a9565b5b6000611429868287016113b7565b935050602061143a868287016113b7565b925050604061144b868287016113ed565b9150509250925092565b6000819050919050565b61146881611455565b811461147357600080fd5b50565b6000813590506114858161145f565b92915050565b6000602082840312156114a1576114a06112a9565b5b60006114af84828501611476565b91505092915050565b6114c181611455565b82525050565b60006020820190506114dc60008301846114b8565b92915050565b600080604083850312156114f9576114f86112a9565b5b600061150785828601611476565b9250506020611518858286016113b7565b9150509250929050565b600080fd5b6000601f19601f8301169050919050565b7f4e487b7100000000000000000000000000000000000000000000000000000000600052604160045260246000fd5b61157082611527565b810181811067ffffffffffffffff8211171561158f5761158e611538565b5b80604052505050565b60006115a261129f565b90506115ae8282611567565b919050565b600067ffffffffffffffff8211156115ce576115cd611538565b5b602082029050602081019050919050565b600080fd5b60006115f76115f2846115b3565b611598565b9050808382526020820190506020840283018581111561161a576116196115df565b5b835b81811015611643578061162f88826113ed565b84526020840193505060208101905061161c565b5050509392505050565b600082601f83011261166257611661611522565b5b81356116728482602086016115e4565b91505092915050565b600080600060608486031215611694576116936112a9565b5b60006116a2868287016113b7565b93505060206116b3868287016113b7565b925050604084013567ffffffffffffffff8111156116d4576116d36112ae565b5b6116e08682870161164d565b9150509250925092565b600080fd5b60008083601f84011261170557611704611522565b5b8235905067ffffffffffffffff811115611722576117216116ea565b5b60208301915083602082028301111561173e5761173d6115df565b5b9250929050565b6000806000806060858703121561175f5761175e6112a9565b5b600061176d878288016113b7565b945050602085013567ffffffffffffffff81111561178e5761178d6112ae565b5b61179a8782880161164d565b935050604085013567ffffffffffffffff8111156117bb576117ba6112ae565b5b6117c7878288016116ef565b925092505092959194509250565b6117de816113cc565b82525050565b60006020820190506117f960008301846117d5565b92915050565b600060208284031215611815576118146112a9565b5b6000611823848285016113b7565b91505092915050565b600081519050919050565b600082825260208201905092915050565b6000819050602082019050919050565b611861816113cc565b82525050565b6118708161138e565b82525050565b600081519050919050565b600082825260208201905092915050565b6000819050602082019050919050565b60006118ae8383611858565b60208301905092915050565b6000602082019050919050565b60006118d282611876565b6118dc8185611881565b93506118e783611892565b8060005b838110156119185781516118ff88826118a2565b975061190a836118ba565b9250506001810190506118eb565b5085935050505092915050565b600060808301600083015161193d6000860182611858565b5060208301516119506020860182611867565b506040830151848203604086015261196882826118c7565b9150506060830151848203606086015261198282826118c7565b9150508091505092915050565b600061199b8383611925565b905092915050565b6000602082019050919050565b60006119bb8261182c565b6119c58185611837565b9350836020820285016119d785611848565b8060005b85811015611a1357848403895281516119f4858261198f565b94506119ff836119a3565b925060208a019950506001810190506119db565b50829750879550505050505092915050565b60006020820190508181036000830152611a3f81846119b0565b905092915050565b611a508161138e565b82525050565b6000602082019050611a6b6000830184611a47565b92915050565b6000606082019050611a866000830186611a47565b611a936020830185611a47565b611aa060408301846117d5565b949350505050565b611ab181611338565b8114611abc57600080fd5b50565b600081519050611ace81611aa8565b92915050565b600060208284031215611aea57611ae96112a9565b5b6000611af884828501611abf565b91505092915050565b600081519050611b10816113d6565b92915050565b6000611b29611b24846115b3565b611598565b90508083825260208201905060208402830185811115611b4c57611b4b6115df565b5b835b81811015611b755780611b618882611b01565b845260208401935050602081019050611b4e565b5050509392505050565b600082601f830112611b9457611b93611522565b5b8151611ba4848260208601611b16565b91505092915050565b600060208284031215611bc357611bc26112a9565b5b600082015167ffffffffffffffff811115611be157611be06112ae565b5b611bed84828501611b7f565b91505092915050565b600082825260208201905092915050565b6000611c1282611876565b611c1c8185611bf6565b9350611c2783611892565b8060005b83811015611c58578151611c3f88826118a2565b9750611c4a836118ba565b925050600181019050611c2b565b5085935050505092915050565b600082825260208201905092915050565b50565b6000611c86600083611c65565b9150611c9182611c76565b600082019050919050565b600060a082019050611cb16000830187611a47565b611cbe6020830186611a47565b8181036040830152611cd08185611c07565b90508181036060830152611ce48184611c07565b90508181036080830152611cf781611c79565b905095945050505050565b7f4e487b7100000000000000000000000000000000000000000000000000000000600052603260045260246000fd5b6000604082019050611d466000830185611a47565b611d5360208301846114b8565b939250505056fea264697066735822122070a2c6ff004a3690bbea61cbc554e35516219f9fb2ceb63d3d721c2b7b39df8764736f6c63430008180033",
  "linkReferences": {},
  "deployedLinkReferences": {}
}