{
  "_format": "hh-sol-artifact-1",
  "contractName": "Marketplace",
  "sourceName": "contracts/RoyalFlush/Marketplace.sol",
  "abi": [
    {
      "inputs": [
        {
          "internalType": "address",
          "name": "cardCoin",
          "type": "address"
        },
        {
          "internalType": "address",
          "name": "baseCards",
          "type": "address"
        },
        {
          "internalType": "address",
          "name": "yieldCards",
          "type": "address"
        },
        {
          "internalType": "address",
          "name": "game",
          "type": "address"
        }
      ],
      "stateMutability": "nonpayable",
      "type": "constructor"
    },
    {
      "inputs": [],
      "name": "EnforcedPause",
      "type": "error"
    },
    {
      "inputs": [],
      "name": "ExpectedPause",
      "type": "error"
    },
    {
      "inputs": [
        {
          "internalType": "address",
          "name": "owner",
          "type": "address"
        }
      ],
      "name": "OwnableInvalidOwner",
      "type": "error"
    },
    {
      "inputs": [
        {
          "internalType": "address",
          "name": "account",
          "type": "address"
        }
      ],
      "name": "OwnableUnauthorizedAccount",
      "type": "error"
    },
    {
      "inputs": [],
      "name": "ReentrancyGuardReentrantCall",
      "type": "error"
    },
    {
      "anonymous": false,
      "inputs": [
        {
          "indexed": true,
          "internalType": "address",
          "name": "payee",
          "type": "address"
        },
        {
          "indexed": false,
          "internalType": "uint256",
          "name": "amount",
          "type": "uint256"
        }
      ],
      "name": "EscrowTransfer",
      "type": "event"
    },
    {
      "anonymous": false,
      "inputs": [
        {
          "indexed": true,
          "internalType": "address",
          "name": "creator",
          "type": "address"
        },
        {
          "indexed": true,
          "internalType": "address",
          "name": "buyer",
          "type": "address"
        },
        {
          "components": [
            {
              "internalType": "uint256",
              "name": "id",
              "type": "uint256"
            },
            {
              "internalType": "address",
              "name": "creator",
              "type": "address"
            },
            {
              "internalType": "address",
              "name": "buyer",
              "type": "address"
            },
            {
              "internalType": "uint256[]",
              "name": "baseCardAmounts",
              "type": "uint256[]"
            },
            {
              "internalType": "uint256[]",
              "name": "yieldCardIds",
              "type": "uint256[]"
            },
            {
              "internalType": "uint256",
              "name": "price",
              "type": "uint256"
            },
            {
              "internalType": "enum Marketplace.ListingStatus",
              "name": "status",
              "type": "uint8"
            }
          ],
          "indexed": false,
          "internalType": "struct Marketplace.Listing",
          "name": "listing",
          "type": "tuple"
        }
      ],
      "name": "ListingUpdated",
      "type": "event"
    },
    {
      "anonymous": false,
      "inputs": [
        {
          "indexed": true,
          "internalType": "address",
          "name": "previousOwner",
          "type": "address"
        },
        {
          "indexed": true,
          "internalType": "address",
          "name": "newOwner",
          "type": "address"
        }
      ],
      "name": "OwnershipTransferred",
      "type": "event"
    },
    {
      "anonymous": false,
      "inputs": [
        {
          "indexed": false,
          "internalType": "address",
          "name": "account",
          "type": "address"
        }
      ],
      "name": "Paused",
      "type": "event"
    },
    {
      "anonymous": false,
      "inputs": [
        {
          "indexed": false,
          "internalType": "address",
          "name": "account",
          "type": "address"
        }
      ],
      "name": "Unpaused",
      "type": "event"
    },
    {
      "inputs": [
        {
          "internalType": "uint256",
          "name": "_id",
          "type": "uint256"
        }
      ],
      "name": "closeListing",
      "outputs": [],
      "stateMutability": "nonpayable",
      "type": "function"
    },
    {
      "inputs": [],
      "name": "collect",
      "outputs": [],
      "stateMutability": "nonpayable",
      "type": "function"
    },
    {
      "inputs": [
        {
          "internalType": "uint256[]",
          "name": "_baseCardAmounts",
          "type": "uint256[]"
        },
        {
          "internalType": "uint256[]",
          "name": "_yieldCardIds",
          "type": "uint256[]"
        },
        {
          "internalType": "uint256",
          "name": "_price",
          "type": "uint256"
        }
      ],
      "name": "createListing",
      "outputs": [],
      "stateMutability": "nonpayable",
      "type": "function"
    },
    {
      "inputs": [
        {
          "internalType": "address",
          "name": "payee",
          "type": "address"
        }
      ],
      "name": "depositsOf",
      "outputs": [
        {
          "internalType": "uint256",
          "name": "",
          "type": "uint256"
        }
      ],
      "stateMutability": "view",
      "type": "function"
    },
    {
      "inputs": [],
      "name": "getListings",
      "outputs": [
        {
          "components": [
            {
              "internalType": "uint256",
              "name": "id",
              "type": "uint256"
            },
            {
              "internalType": "address",
              "name": "creator",
              "type": "address"
            },
            {
              "internalType": "address",
              "name": "buyer",
              "type": "address"
            },
            {
              "internalType": "uint256[]",
              "name": "baseCardAmounts",
              "type": "uint256[]"
            },
            {
              "internalType": "uint256[]",
              "name": "yieldCardIds",
              "type": "uint256[]"
            },
            {
              "internalType": "uint256",
              "name": "price",
              "type": "uint256"
            },
            {
              "internalType": "enum Marketplace.ListingStatus",
              "name": "status",
              "type": "uint8"
            }
          ],
          "internalType": "struct Marketplace.Listing[]",
          "name": "",
          "type": "tuple[]"
        }
      ],
      "stateMutability": "view",
      "type": "function"
    },
    {
      "inputs": [
        {
          "internalType": "address",
          "name": "",
          "type": "address"
        },
        {
          "internalType": "address",
          "name": "",
          "type": "address"
        },
        {
          "internalType": "uint256[]",
          "name": "",
          "type": "uint256[]"
        },
        {
          "internalType": "uint256[]",
          "name": "",
          "type": "uint256[]"
        },
        {
          "internalType": "bytes",
          "name": "",
          "type": "bytes"
        }
      ],
      "name": "onERC1155BatchReceived",
      "outputs": [
        {
          "internalType": "bytes4",
          "name": "",
          "type": "bytes4"
        }
      ],
      "stateMutability": "nonpayable",
      "type": "function"
    },
    {
      "inputs": [
        {
          "internalType": "address",
          "name": "",
          "type": "address"
        },
        {
          "internalType": "address",
          "name": "",
          "type": "address"
        },
        {
          "internalType": "uint256",
          "name": "",
          "type": "uint256"
        },
        {
          "internalType": "uint256",
          "name": "",
          "type": "uint256"
        },
        {
          "internalType": "bytes",
          "name": "",
          "type": "bytes"
        }
      ],
      "name": "onERC1155Received",
      "outputs": [
        {
          "internalType": "bytes4",
          "name": "",
          "type": "bytes4"
        }
      ],
      "stateMutability": "nonpayable",
      "type": "function"
    },
    {
      "inputs": [
        {
          "internalType": "address",
          "name": "",
          "type": "address"
        },
        {
          "internalType": "address",
          "name": "",
          "type": "address"
        },
        {
          "internalType": "uint256",
          "name": "",
          "type": "uint256"
        },
        {
          "internalType": "bytes",
          "name": "",
          "type": "bytes"
        }
      ],
      "name": "onERC721Received",
      "outputs": [
        {
          "internalType": "bytes4",
          "name": "",
          "type": "bytes4"
        }
      ],
      "stateMutability": "nonpayable",
      "type": "function"
    },
    {
      "inputs": [],
      "name": "owner",
      "outputs": [
        {
          "internalType": "address",
          "name": "",
          "type": "address"
        }
      ],
      "stateMutability": "view",
      "type": "function"
    },
    {
      "inputs": [],
      "name": "paused",
      "outputs": [
        {
          "internalType": "bool",
          "name": "",
          "type": "bool"
        }
      ],
      "stateMutability": "view",
      "type": "function"
    },
    {
      "inputs": [
        {
          "internalType": "uint256",
          "name": "_id",
          "type": "uint256"
        }
      ],
      "name": "purchaseListing",
      "outputs": [],
      "stateMutability": "nonpayable",
      "type": "function"
    },
    {
      "inputs": [],
      "name": "renounceOwnership",
      "outputs": [],
      "stateMutability": "nonpayable",
      "type": "function"
    },
    {
      "inputs": [
        {
          "internalType": "bytes4",
          "name": "interfaceId",
          "type": "bytes4"
        }
      ],
      "name": "supportsInterface",
      "outputs": [
        {
          "internalType": "bool",
          "name": "",
          "type": "bool"
        }
      ],
      "stateMutability": "view",
      "type": "function"
    },
    {
      "inputs": [],
      "name": "togglePause",
      "outputs": [],
      "stateMutability": "nonpayable",
      "type": "function"
    },
    {
      "inputs": [
        {
          "internalType": "address",
          "name": "newOwner",
          "type": "address"
        }
      ],
      "name": "transferOwnership",
      "outputs": [],
      "stateMutability": "nonpayable",
      "type": "function"
    }
  ],
  "bytecode": "0x60806040523480156200001157600080fd5b50604051620037e6380380620037e6833981810160405281019062000037919062000333565b62000047620001fd60201b60201c565b600073ffffffffffffffffffffffffffffffffffffffff168173ffffffffffffffffffffffffffffffffffffffff1603620000bc5760006040517f1e4fbdf7000000000000000000000000000000000000000000000000000000008152600401620000b39190620003b6565b60405180910390fd5b620000cd816200020560201b60201c565b5060008060146101000a81548160ff0219169083151502179055506001808190555083600460006101000a81548173ffffffffffffffffffffffffffffffffffffffff021916908373ffffffffffffffffffffffffffffffffffffffff16021790555082600560006101000a81548173ffffffffffffffffffffffffffffffffffffffff021916908373ffffffffffffffffffffffffffffffffffffffff16021790555081600660006101000a81548173ffffffffffffffffffffffffffffffffffffffff021916908373ffffffffffffffffffffffffffffffffffffffff16021790555080600760006101000a81548173ffffffffffffffffffffffffffffffffffffffff021916908373ffffffffffffffffffffffffffffffffffffffff16021790555050505050620003d3565b600033905090565b60008060009054906101000a900473ffffffffffffffffffffffffffffffffffffffff169050816000806101000a81548173ffffffffffffffffffffffffffffffffffffffff021916908373ffffffffffffffffffffffffffffffffffffffff1602179055508173ffffffffffffffffffffffffffffffffffffffff168173ffffffffffffffffffffffffffffffffffffffff167f8be0079c531659141344cd1fd0a4f28419497f9722a3daafe3b4186f6b6457e060405160405180910390a35050565b600080fd5b600073ffffffffffffffffffffffffffffffffffffffff82169050919050565b6000620002fb82620002ce565b9050919050565b6200030d81620002ee565b81146200031957600080fd5b50565b6000815190506200032d8162000302565b92915050565b6000806000806080858703121562000350576200034f620002c9565b5b600062000360878288016200031c565b945050602062000373878288016200031c565b935050604062000386878288016200031c565b925050606062000399878288016200031c565b91505092959194509250565b620003b081620002ee565b82525050565b6000602082019050620003cd6000830184620003a5565b92915050565b61340380620003e36000396000f3fe608060405234801561001057600080fd5b50600436106100f55760003560e01c8063bc197c8111610097578063e5a255cb11610066578063e5a255cb1461024c578063f1b2d6a314610268578063f23a6e6114610286578063f2fde38b146102b6576100f5565b8063bc197c81146101d8578063c4ae316814610208578063e3a9db1a14610212578063e522538114610242576100f5565b80635c975abb116100d35780635c975abb14610176578063715018a61461019457806382d059fe1461019e5780638da5cb5b146101ba576100f5565b806301ffc9a7146100fa578063150b7a021461012a578063169d5a7d1461015a575b600080fd5b610114600480360381019061010f9190611cc3565b6102d2565b6040516101219190611d0b565b60405180910390f35b610144600480360381019061013f9190611f00565b61034c565b6040516101519190611f92565b60405180910390f35b610174600480360381019061016f9190611fad565b610360565b005b61017e610895565b60405161018b9190611d0b565b60405180910390f35b61019c6108ab565b005b6101b860048036038101906101b391906120a2565b6108bf565b005b6101c2610d4f565b6040516101cf919061213c565b60405180910390f35b6101f260048036038101906101ed9190612157565b610d78565b6040516101ff9190611f92565b60405180910390f35b610210610d8d565b005b61022c60048036038101906102279190612226565b610dba565b6040516102399190612262565b60405180910390f35b61024a610e03565b005b61026660048036038101906102619190611fad565b610e15565b005b61027061123b565b60405161027d9190612526565b60405180910390f35b6102a0600480360381019061029b9190612548565b611445565b6040516102ad9190611f92565b60405180910390f35b6102d060048036038101906102cb9190612226565b61145a565b005b60007f4e2312e0000000000000000000000000000000000000000000000000000000007bffffffffffffffffffffffffffffffffffffffffffffffffffffffff1916827bffffffffffffffffffffffffffffffffffffffffffffffffffffffff191614806103455750610344826114e0565b5b9050919050565b600063150b7a0260e01b9050949350505050565b61036861154a565b60006002828154811061037e5761037d6125df565b5b9060005260206000209060070201905060028054905082106103d5576040517f08c379a00000000000000000000000000000000000000000000000000000000081526004016103cc90612691565b60405180910390fd5b600060028111156103e9576103e8612376565b5b8160060160009054906101000a900460ff16600281111561040d5761040c612376565b5b1461044d576040517f08c379a000000000000000000000000000000000000000000000000000000000815260040161044490612749565b60405180910390fd5b610476610458611590565b610460610d4f565b6014846005015461047191906127c7565b611598565b6104c8610481611590565b8260010160009054906101000a900473ffffffffffffffffffffffffffffffffffffffff166013601485600501546104b991906127c7565b6104c391906127f8565b611598565b600560009054906101000a900473ffffffffffffffffffffffffffffffffffffffff1673ffffffffffffffffffffffffffffffffffffffff16632eb2c2d63061050f611590565b600560009054906101000a900473ffffffffffffffffffffffffffffffffffffffff1673ffffffffffffffffffffffffffffffffffffffff16638c4132526040518163ffffffff1660e01b8152600401600060405180830381865afa15801561057c573d6000803e3d6000fd5b505050506040513d6000823e3d601f19601f820116820180604052508101906105a591906128e6565b856003016040518563ffffffff1660e01b81526004016105c89493929190612aab565b600060405180830381600087803b1580156105e257600080fd5b505af11580156105f6573d6000803e3d6000fd5b5050505060005b81600401805490508110156106d157600660009054906101000a900473ffffffffffffffffffffffffffffffffffffffff1673ffffffffffffffffffffffffffffffffffffffff166342842e0e30610653611590565b856004018581548110610669576106686125df565b5b90600052602060002001546040518463ffffffff1660e01b815260040161069293929190612b11565b600060405180830381600087803b1580156106ac57600080fd5b505af11580156106c0573d6000803e3d6000fd5b5050505080806001019150506105fd565b5060018160060160006101000a81548160ff021916908360028111156106fa576106f9612376565b5b0217905550610707611590565b8160020160006101000a81548173ffffffffffffffffffffffffffffffffffffffff021916908373ffffffffffffffffffffffffffffffffffffffff160217905550600760009054906101000a900473ffffffffffffffffffffffffffffffffffffffff1673ffffffffffffffffffffffffffffffffffffffff1663424f0eb461078f611590565b83600301846004016040518463ffffffff1660e01b81526004016107b593929190612b48565b6020604051808303816000875af11580156107d4573d6000803e3d6000fd5b505050506040513d601f19601f820116820180604052508101906107f89190612b8d565b50610801611590565b73ffffffffffffffffffffffffffffffffffffffff168160010160009054906101000a900473ffffffffffffffffffffffffffffffffffffffff1673ffffffffffffffffffffffffffffffffffffffff167f29d456a39755f06ab336a407d703152879233197ec8ab56e84d69336669fbfc3836040516108819190612d5a565b60405180910390a350610892611728565b50565b60008060149054906101000a900460ff16905090565b6108b3611731565b6108bd60006117b8565b565b6108c761187c565b6108cf61154a565b60006108da846118bd565b905060008111806108ec575060008351115b61092b576040517f08c379a000000000000000000000000000000000000000000000000000000000815260040161092290612dee565b60405180910390fd5b601584511461096f576040517f08c379a000000000000000000000000000000000000000000000000000000000815260040161096690612e80565b60405180910390fd5b681b1ae4d6e2ef500000835161098591906127f8565b681b1ae4d6e2ef5000008261099a91906127f8565b6109a49190612ea0565b8210156109e6576040517f08c379a00000000000000000000000000000000000000000000000000000000081526004016109dd90612f46565b60405180910390fd5b600760009054906101000a900473ffffffffffffffffffffffffffffffffffffffff1673ffffffffffffffffffffffffffffffffffffffff166341fcaaf6610a2c611590565b30876040518463ffffffff1660e01b8152600401610a4c93929190612f66565b600060405180830381600087803b158015610a6657600080fd5b505af1158015610a7a573d6000803e3d6000fd5b50505050600760009054906101000a900473ffffffffffffffffffffffffffffffffffffffff1673ffffffffffffffffffffffffffffffffffffffff1663c246474a610ac4611590565b30866040518463ffffffff1660e01b8152600401610ae493929190612f66565b600060405180830381600087803b158015610afe57600080fd5b505af1158015610b12573d6000803e3d6000fd5b5050505060006040518060e001604052806002805490508152602001610b36611590565b73ffffffffffffffffffffffffffffffffffffffff168152602001600073ffffffffffffffffffffffffffffffffffffffff16815260200186815260200185815260200184815260200160006002811115610b9457610b93612376565b5b815250905060028190806001815401808255809150506001900390600052602060002090600702016000909190919091506000820151816000015560208201518160010160006101000a81548173ffffffffffffffffffffffffffffffffffffffff021916908373ffffffffffffffffffffffffffffffffffffffff16021790555060408201518160020160006101000a81548173ffffffffffffffffffffffffffffffffffffffff021916908373ffffffffffffffffffffffffffffffffffffffff1602179055506060820151816003019080519060200190610c79929190611bed565b506080820151816004019080519060200190610c96929190611bed565b5060a0820151816005015560c08201518160060160006101000a81548160ff02191690836002811115610ccc57610ccb612376565b5b02179055505050600073ffffffffffffffffffffffffffffffffffffffff16610cf3611590565b73ffffffffffffffffffffffffffffffffffffffff167f29d456a39755f06ab336a407d703152879233197ec8ab56e84d69336669fbfc383604051610d389190613047565b60405180910390a35050610d4a611728565b505050565b60008060009054906101000a900473ffffffffffffffffffffffffffffffffffffffff16905090565b600063bc197c8160e01b905095945050505050565b610d95611731565b610d9d610895565b15610daf57610daa61190b565b610db8565b610db761196d565b5b565b6000600360008373ffffffffffffffffffffffffffffffffffffffff1673ffffffffffffffffffffffffffffffffffffffff168152602001908152602001600020549050919050565b610e13610e0e611590565b6119d0565b565b600060028281548110610e2b57610e2a6125df565b5b906000526020600020906007020190506002805490508210610e82576040517f08c379a0000000000000000000000000000000000000000000000000000000008152600401610e79906130b5565b60405180910390fd5b610e8a611590565b73ffffffffffffffffffffffffffffffffffffffff168160010160009054906101000a900473ffffffffffffffffffffffffffffffffffffffff1673ffffffffffffffffffffffffffffffffffffffff1614610f1b576040517f08c379a0000000000000000000000000000000000000000000000000000000008152600401610f1290613147565b60405180910390fd5b60006002811115610f2f57610f2e612376565b5b8160060160009054906101000a900460ff166002811115610f5357610f52612376565b5b14610f93576040517f08c379a0000000000000000000000000000000000000000000000000000000008152600401610f8a906131b3565b60405180910390fd5b600560009054906101000a900473ffffffffffffffffffffffffffffffffffffffff1673ffffffffffffffffffffffffffffffffffffffff16632eb2c2d630610fda611590565b600560009054906101000a900473ffffffffffffffffffffffffffffffffffffffff1673ffffffffffffffffffffffffffffffffffffffff16638c4132526040518163ffffffff1660e01b8152600401600060405180830381865afa158015611047573d6000803e3d6000fd5b505050506040513d6000823e3d601f19601f8201168201806040525081019061107091906128e6565b856003016040518563ffffffff1660e01b81526004016110939493929190612aab565b600060405180830381600087803b1580156110ad57600080fd5b505af11580156110c1573d6000803e3d6000fd5b5050505060005b816004018054905081101561119c57600660009054906101000a900473ffffffffffffffffffffffffffffffffffffffff1673ffffffffffffffffffffffffffffffffffffffff166342842e0e3061111e611590565b856004018581548110611134576111336125df565b5b90600052602060002001546040518463ffffffff1660e01b815260040161115d93929190612b11565b600060405180830381600087803b15801561117757600080fd5b505af115801561118b573d6000803e3d6000fd5b5050505080806001019150506110c8565b5060028160060160006101000a81548160ff021916908360028111156111c5576111c4612376565b5b0217905550600073ffffffffffffffffffffffffffffffffffffffff166111ea611590565b73ffffffffffffffffffffffffffffffffffffffff167f29d456a39755f06ab336a407d703152879233197ec8ab56e84d69336669fbfc38360405161122f9190612d5a565b60405180910390a35050565b60606002805480602002602001604051908101604052809291908181526020016000905b8282101561143c57838290600052602060002090600702016040518060e0016040529081600082015481526020016001820160009054906101000a900473ffffffffffffffffffffffffffffffffffffffff1673ffffffffffffffffffffffffffffffffffffffff1673ffffffffffffffffffffffffffffffffffffffff1681526020016002820160009054906101000a900473ffffffffffffffffffffffffffffffffffffffff1673ffffffffffffffffffffffffffffffffffffffff1673ffffffffffffffffffffffffffffffffffffffff1681526020016003820180548060200260200160405190810160405280929190818152602001828054801561138757602002820191906000526020600020905b815481526020019060010190808311611373575b50505050508152602001600482018054806020026020016040519081016040528092919081815260200182805480156113df57602002820191906000526020600020905b8154815260200190600101908083116113cb575b50505050508152602001600582015481526020016006820160009054906101000a900460ff16600281111561141757611416612376565b5b600281111561142957611428612376565b5b815250508152602001906001019061125f565b50505050905090565b600063f23a6e6160e01b905095945050505050565b611462611731565b600073ffffffffffffffffffffffffffffffffffffffff168173ffffffffffffffffffffffffffffffffffffffff16036114d45760006040517f1e4fbdf70000000000000000000000000000000000000000000000000000000081526004016114cb919061213c565b60405180910390fd5b6114dd816117b8565b50565b60007f01ffc9a7000000000000000000000000000000000000000000000000000000007bffffffffffffffffffffffffffffffffffffffffffffffffffffffff1916827bffffffffffffffffffffffffffffffffffffffffffffffffffffffff1916149050919050565b600260015403611586576040517f3ee5aeb500000000000000000000000000000000000000000000000000000000815260040160405180910390fd5b6002600181905550565b600033905090565b6000600760009054906101000a900473ffffffffffffffffffffffffffffffffffffffff1673ffffffffffffffffffffffffffffffffffffffff1663193668bc8530856040518463ffffffff1660e01b81526004016115f993929190612b11565b6020604051808303816000875af1158015611618573d6000803e3d6000fd5b505050506040513d601f19601f8201168201806040525081019061163c91906131ff565b90508061167e576040517f08c379a000000000000000000000000000000000000000000000000000000000815260040161167590613278565b60405180910390fd5b81600360008573ffffffffffffffffffffffffffffffffffffffff1673ffffffffffffffffffffffffffffffffffffffff16815260200190815260200160002060008282546116cd9190612ea0565b925050819055508273ffffffffffffffffffffffffffffffffffffffff167f9a3c74611e19c9774259a243b6c5bc5e84ee00381b8e9d14924c1c5182fea6888360405161171a9190612262565b60405180910390a250505050565b60018081905550565b611739611590565b73ffffffffffffffffffffffffffffffffffffffff16611757610d4f565b73ffffffffffffffffffffffffffffffffffffffff16146117b65761177a611590565b6040517f118cdaa70000000000000000000000000000000000000000000000000000000081526004016117ad919061213c565b60405180910390fd5b565b60008060009054906101000a900473ffffffffffffffffffffffffffffffffffffffff169050816000806101000a81548173ffffffffffffffffffffffffffffffffffffffff021916908373ffffffffffffffffffffffffffffffffffffffff1602179055508173ffffffffffffffffffffffffffffffffffffffff168173ffffffffffffffffffffffffffffffffffffffff167f8be0079c531659141344cd1fd0a4f28419497f9722a3daafe3b4186f6b6457e060405160405180910390a35050565b611884610895565b156118bb576040517fd93c066500000000000000000000000000000000000000000000000000000000815260040160405180910390fd5b565b60008060005b8351811015611901578381815181106118df576118de6125df565b5b6020026020010151826118f29190612ea0565b915080806001019150506118c3565b5080915050919050565b611913611bad565b60008060146101000a81548160ff0219169083151502179055507f5db9ee0a495bf2e6ff9c91a7834c1ba4fdd244a5e8aa4e537bd38aeae4b073aa611956611590565b604051611963919061213c565b60405180910390a1565b61197561187c565b6001600060146101000a81548160ff0219169083151502179055507f62e78cea01bee320cd4e420270b5ea74000d11b0c9f74754ebdbfc544b05a2586119b9611590565b6040516119c6919061213c565b60405180910390a1565b60006119db82610dba565b905060008111611a20576040517f08c379a0000000000000000000000000000000000000000000000000000000008152600401611a17906132e4565b60405180910390fd5b6000600460009054906101000a900473ffffffffffffffffffffffffffffffffffffffff1673ffffffffffffffffffffffffffffffffffffffff1663a9059cbb84846040518363ffffffff1660e01b8152600401611a7f929190613304565b6020604051808303816000875af1158015611a9e573d6000803e3d6000fd5b505050506040513d601f19601f82011682018060405250810190611ac291906131ff565b905080611b04576040517f08c379a0000000000000000000000000000000000000000000000000000000008152600401611afb90613379565b60405180910390fd5b81600360008573ffffffffffffffffffffffffffffffffffffffff1673ffffffffffffffffffffffffffffffffffffffff1681526020019081526020016000206000828254611b539190613399565b925050819055508273ffffffffffffffffffffffffffffffffffffffff167f9a3c74611e19c9774259a243b6c5bc5e84ee00381b8e9d14924c1c5182fea68883604051611ba09190612262565b60405180910390a2505050565b611bb5610895565b611beb576040517f8dfc202b00000000000000000000000000000000000000000000000000000000815260040160405180910390fd5b565b828054828255906000526020600020908101928215611c29579160200282015b82811115611c28578251825591602001919060010190611c0d565b5b509050611c369190611c3a565b5090565b5b80821115611c53576000816000905550600101611c3b565b5090565b6000604051905090565b600080fd5b600080fd5b60007fffffffff0000000000000000000000000000000000000000000000000000000082169050919050565b611ca081611c6b565b8114611cab57600080fd5b50565b600081359050611cbd81611c97565b92915050565b600060208284031215611cd957611cd8611c61565b5b6000611ce784828501611cae565b91505092915050565b60008115159050919050565b611d0581611cf0565b82525050565b6000602082019050611d206000830184611cfc565b92915050565b600073ffffffffffffffffffffffffffffffffffffffff82169050919050565b6000611d5182611d26565b9050919050565b611d6181611d46565b8114611d6c57600080fd5b50565b600081359050611d7e81611d58565b92915050565b6000819050919050565b611d9781611d84565b8114611da257600080fd5b50565b600081359050611db481611d8e565b92915050565b600080fd5b600080fd5b6000601f19601f8301169050919050565b7f4e487b7100000000000000000000000000000000000000000000000000000000600052604160045260246000fd5b611e0d82611dc4565b810181811067ffffffffffffffff82111715611e2c57611e2b611dd5565b5b80604052505050565b6000611e3f611c57565b9050611e4b8282611e04565b919050565b600067ffffffffffffffff821115611e6b57611e6a611dd5565b5b611e7482611dc4565b9050602081019050919050565b82818337600083830152505050565b6000611ea3611e9e84611e50565b611e35565b905082815260208101848484011115611ebf57611ebe611dbf565b5b611eca848285611e81565b509392505050565b600082601f830112611ee757611ee6611dba565b5b8135611ef7848260208601611e90565b91505092915050565b60008060008060808587031215611f1a57611f19611c61565b5b6000611f2887828801611d6f565b9450506020611f3987828801611d6f565b9350506040611f4a87828801611da5565b925050606085013567ffffffffffffffff811115611f6b57611f6a611c66565b5b611f7787828801611ed2565b91505092959194509250565b611f8c81611c6b565b82525050565b6000602082019050611fa76000830184611f83565b92915050565b600060208284031215611fc357611fc2611c61565b5b6000611fd184828501611da5565b91505092915050565b600067ffffffffffffffff821115611ff557611ff4611dd5565b5b602082029050602081019050919050565b600080fd5b600061201e61201984611fda565b611e35565b9050808382526020820190506020840283018581111561204157612040612006565b5b835b8181101561206a57806120568882611da5565b845260208401935050602081019050612043565b5050509392505050565b600082601f83011261208957612088611dba565b5b813561209984826020860161200b565b91505092915050565b6000806000606084860312156120bb576120ba611c61565b5b600084013567ffffffffffffffff8111156120d9576120d8611c66565b5b6120e586828701612074565b935050602084013567ffffffffffffffff81111561210657612105611c66565b5b61211286828701612074565b925050604061212386828701611da5565b9150509250925092565b61213681611d46565b82525050565b6000602082019050612151600083018461212d565b92915050565b600080600080600060a0868803121561217357612172611c61565b5b600061218188828901611d6f565b955050602061219288828901611d6f565b945050604086013567ffffffffffffffff8111156121b3576121b2611c66565b5b6121bf88828901612074565b935050606086013567ffffffffffffffff8111156121e0576121df611c66565b5b6121ec88828901612074565b925050608086013567ffffffffffffffff81111561220d5761220c611c66565b5b61221988828901611ed2565b9150509295509295909350565b60006020828403121561223c5761223b611c61565b5b600061224a84828501611d6f565b91505092915050565b61225c81611d84565b82525050565b60006020820190506122776000830184612253565b92915050565b600081519050919050565b600082825260208201905092915050565b6000819050602082019050919050565b6122b281611d84565b82525050565b6122c181611d46565b82525050565b600081519050919050565b600082825260208201905092915050565b6000819050602082019050919050565b60006122ff83836122a9565b60208301905092915050565b6000602082019050919050565b6000612323826122c7565b61232d81856122d2565b9350612338836122e3565b8060005b8381101561236957815161235088826122f3565b975061235b8361230b565b92505060018101905061233c565b5085935050505092915050565b7f4e487b7100000000000000000000000000000000000000000000000000000000600052602160045260246000fd5b600381106123b6576123b5612376565b5b50565b60008190506123c7826123a5565b919050565b60006123d7826123b9565b9050919050565b6123e7816123cc565b82525050565b600060e08301600083015161240560008601826122a9565b50602083015161241860208601826122b8565b50604083015161242b60408601826122b8565b50606083015184820360608601526124438282612318565b9150506080830151848203608086015261245d8282612318565b91505060a083015161247260a08601826122a9565b5060c083015161248560c08601826123de565b508091505092915050565b600061249c83836123ed565b905092915050565b6000602082019050919050565b60006124bc8261227d565b6124c68185612288565b9350836020820285016124d885612299565b8060005b8581101561251457848403895281516124f58582612490565b9450612500836124a4565b925060208a019950506001810190506124dc565b50829750879550505050505092915050565b6000602082019050818103600083015261254081846124b1565b905092915050565b600080600080600060a0868803121561256457612563611c61565b5b600061257288828901611d6f565b955050602061258388828901611d6f565b945050604061259488828901611da5565b93505060606125a588828901611da5565b925050608086013567ffffffffffffffff8111156125c6576125c5611c66565b5b6125d288828901611ed2565b9150509295509295909350565b7f4e487b7100000000000000000000000000000000000000000000000000000000600052603260045260246000fd5b600082825260208201905092915050565b7f4d61726b6574706c6163652370757263686173654c697374696e67202d204c6960008201527f7374696e6720646f6573206e6f742065786973742e0000000000000000000000602082015250565b600061267b60358361260e565b91506126868261261f565b604082019050919050565b600060208201905081810360008301526126aa8161266e565b9050919050565b7f4d61726b6574706c6163652370757263686173654c697374696e67202d204c6960008201527f7374696e67206973206e6f7420617661696c61626c6520666f7220707572636860208201527f6173652e00000000000000000000000000000000000000000000000000000000604082015250565b600061273360448361260e565b915061273e826126b1565b606082019050919050565b6000602082019050818103600083015261276281612726565b9050919050565b7f4e487b7100000000000000000000000000000000000000000000000000000000600052601260045260246000fd5b7f4e487b7100000000000000000000000000000000000000000000000000000000600052601160045260246000fd5b60006127d282611d84565b91506127dd83611d84565b9250826127ed576127ec612769565b5b828204905092915050565b600061280382611d84565b915061280e83611d84565b925082820261281c81611d84565b9150828204841483151761283357612832612798565b5b5092915050565b60008151905061284981611d8e565b92915050565b600061286261285d84611fda565b611e35565b9050808382526020820190506020840283018581111561288557612884612006565b5b835b818110156128ae578061289a888261283a565b845260208401935050602081019050612887565b5050509392505050565b600082601f8301126128cd576128cc611dba565b5b81516128dd84826020860161284f565b91505092915050565b6000602082840312156128fc576128fb611c61565b5b600082015167ffffffffffffffff81111561291a57612919611c66565b5b612926848285016128b8565b91505092915050565b600082825260208201905092915050565b600061294b826122c7565b612955818561292f565b9350612960836122e3565b8060005b8381101561299157815161297888826122f3565b97506129838361230b565b925050600181019050612964565b5085935050505092915050565b600081549050919050565b60008190508160005260206000209050919050565b60008160001c9050919050565b6000819050919050565b60006129e86129e3836129be565b6129cb565b9050919050565b60006129fb82546129d5565b9050919050565b6000600182019050919050565b6000612a1a8261299e565b612a24818561292f565b9350612a2f836129a9565b8060005b83811015612a6757612a44826129ef565b612a4e88826122f3565b9750612a5983612a02565b925050600181019050612a33565b5085935050505092915050565b600082825260208201905092915050565b50565b6000612a95600083612a74565b9150612aa082612a85565b600082019050919050565b600060a082019050612ac0600083018761212d565b612acd602083018661212d565b8181036040830152612adf8185612940565b90508181036060830152612af38184612a0f565b90508181036080830152612b0681612a88565b905095945050505050565b6000606082019050612b26600083018661212d565b612b33602083018561212d565b612b406040830184612253565b949350505050565b6000606082019050612b5d600083018661212d565b8181036020830152612b6f8185612a0f565b90508181036040830152612b838184612a0f565b9050949350505050565b600060208284031215612ba357612ba2611c61565b5b6000612bb18482850161283a565b91505092915050565b600073ffffffffffffffffffffffffffffffffffffffff82169050919050565b6000612bed612be8836129be565b612bba565b9050919050565b6000612bff8261299e565b612c0981856122d2565b9350612c14836129a9565b8060005b83811015612c4c57612c29826129ef565b612c3388826122f3565b9750612c3e83612a02565b925050600181019050612c18565b5085935050505092915050565b600060ff82169050919050565b6000612c79612c74836129be565b612c59565b9050919050565b600060e083016000808401549050612c97816129d5565b612ca460008701826122a9565b5060018401549050612cb581612bda565b612cc260208701826122b8565b5060028401549050612cd381612bda565b612ce060408701826122b8565b50600384018583036060870152612cf78382612bf4565b925050600484018583036080870152612d108382612bf4565b92505060058401549050612d23816129d5565b612d3060a08701826122a9565b5060068401549050612d4181612c66565b612d4e60c08701826123de565b50819250505092915050565b60006020820190508181036000830152612d748184612c80565b905092915050565b7f4d61726b6574706c616365236372656174654c697374696e67202d204e6f206360008201527f617264732070726f766964656400000000000000000000000000000000000000602082015250565b6000612dd8602d8361260e565b9150612de382612d7c565b604082019050919050565b60006020820190508181036000830152612e0781612dcb565b9050919050565b7f4d61726b6574706c616365236372656174654c697374696e67202d20496e766160008201527f6c6964206e756d626572206f662063617264207175616e746974696573000000602082015250565b6000612e6a603d8361260e565b9150612e7582612e0e565b604082019050919050565b60006020820190508181036000830152612e9981612e5d565b9050919050565b6000612eab82611d84565b9150612eb683611d84565b9250828201905080821115612ece57612ecd612798565b5b92915050565b7f4d61726b6574706c616365236372656174654c697374696e67202d20496e766160008201527f6c69642070726963650000000000000000000000000000000000000000000000602082015250565b6000612f3060298361260e565b9150612f3b82612ed4565b604082019050919050565b60006020820190508181036000830152612f5f81612f23565b9050919050565b6000606082019050612f7b600083018661212d565b612f88602083018561212d565b8181036040830152612f9a8184612940565b9050949350505050565b600060e083016000830151612fbc60008601826122a9565b506020830151612fcf60208601826122b8565b506040830151612fe260408601826122b8565b5060608301518482036060860152612ffa8282612318565b915050608083015184820360808601526130148282612318565b91505060a083015161302960a08601826122a9565b5060c083015161303c60c08601826123de565b508091505092915050565b600060208201905081810360008301526130618184612fa4565b905092915050565b7f4c697374696e6720646f6573206e6f7420657869737400000000000000000000600082015250565b600061309f60168361260e565b91506130aa82613069565b602082019050919050565b600060208201905081810360008301526130ce81613092565b9050919050565b7f43616e6e6f742064656c657465204c697374696e6720796f7520646f206e6f7460008201527f206f776e00000000000000000000000000000000000000000000000000000000602082015250565b600061313160248361260e565b915061313c826130d5565b604082019050919050565b6000602082019050818103600083015261316081613124565b9050919050565b7f4c697374696e67206d757374206265204f50454e2e0000000000000000000000600082015250565b600061319d60158361260e565b91506131a882613167565b602082019050919050565b600060208201905081810360008301526131cc81613190565b9050919050565b6131dc81611cf0565b81146131e757600080fd5b50565b6000815190506131f9816131d3565b92915050565b60006020828403121561321557613214611c61565b5b6000613223848285016131ea565b91505092915050565b7f436f756c64206e6f7420636f6e73756d65204341524400000000000000000000600082015250565b600061326260168361260e565b915061326d8261322c565b602082019050919050565b6000602082019050818103600083015261329181613255565b9050919050565b7f4e6f7468696e6720746f20776974686472617700000000000000000000000000600082015250565b60006132ce60138361260e565b91506132d982613298565b602082019050919050565b600060208201905081810360008301526132fd816132c1565b9050919050565b6000604082019050613319600083018561212d565b6133266020830184612253565b9392505050565b7f436f756c64206e6f742077697468647261772045524332300000000000000000600082015250565b600061336360188361260e565b915061336e8261332d565b602082019050919050565b6000602082019050818103600083015261339281613356565b9050919050565b60006133a482611d84565b91506133af83611d84565b92508282039050818111156133c7576133c6612798565b5b9291505056fea26469706673582212206796375166dd089b5cedce994d1eee4f86f2ac9c9d2bb01f5c78d14a621fe4de64736f6c63430008180033",
  "linkReferences": {},
  "deployedLinkReferences": {}
}